:100000000C9498070C94B5070C94B5070C94B5079D
:100010000C94B5070C94B5070C94B5070C94B50770
:100020000C94B5070C94B5070C9498140C94321BDF
:100030000C94932B0C94B5070C94B5070C94B5074E
:100040000C94B5070C94B5070C94B5070C94B50740
:100050000C94B5070C94C7150C94B5070C94B50710
:100060000C94B5070C94B5070C94B5070C94B50720
:100070000C94B5070C94B5070C94B5070C94B50710
:100080000C94B5070C94B5070C94B5070C94B50700
:100090000C94B5070C94B5070C94B5070C94B507F0
:1000A0000C94B5070C94B5070C94B5070631FF09FD
:1000B00074A1010975150026FF00952075088102BD
:1000C0000976150026FF00952075089102C00501EC
:1000D0000902A10185020901A100050919012905EB
:1000E00015002501950575018102950175038101B2
:1000F0000501093009311581257F950275088106B2
:1001000009381581257F950175088106050C0A3887
:10011000021581257F950175088106C0C00501097A
:1001200080A101850319012AB700150126B70095A2
:100130000175108100C0050C0901A1018504190198
:100140002AA002150126A002950175108100C006A3
:1001500060FF0961A1010962150026FF0095207565
:100160000881020963150026FF0095207508910299
:10017000C005010906A101050719E029E7150025B9
:10018000019508750181029501750881010507191E
:100190000029FF150026FF00950675088100050857
:1001A00019012905950575019102950175039101C4
:1001B000C00000000000000000000000000000007F
:1001C000000000000000000000000000000000002F
:1001D00000000000007E0F00D4FFFFFFC7000000FA
:1001E0007800000000000000002A2B28000000001A
:1001F00000000000000000000000000029000000D6
:10020000002C1E3420212224342627252E362D377B
:1002100038271E1F202122232425263333362E374C
:10022000381F0405060708090A0B0C0D0E0F1011E4
:1002300012131415161718191A1B1C1D2F313023F1
:100240002D350405060708090A0B0C0D0E0F1011B9
:1002500012131415161718191A1B1C1D2F313035BF
:100260004C646973706C61795F736574757032206A
:100270006661696C65640A0000DA0281FFD9F1DB0E
:1002800020A4A62EAF646973706C61795F666C6997
:1002900070706564206661696C65640A0000A0C0C6
:1002A0006F6C65645F696E697420636D64206E6F46
:1002B000726D616C20726F746174696F6E2066611B
:1002C000696C65640A0000A1C86F6C65645F696E43
:1002D000697420636D6420736574203120666169E0
:1002E0006C65640A0000AED580A81FD300408D1451
:1002F00020005B735D000A0025303862003A200060
:1003000025303258000A722F6320303132333435B1
:1003100036370A000080C0603018080C040602025C
:100320000202020303020202020606040C0818304D
:1003300060C080000C7FE180000000000000000031
:1003400000000000000000000000000000000000AD
:1003500080E37F000000000103060C0C1818101049
:100360003030303030303030101018080C0C0603AC
:10037000010000000080C06030180C0C060682C22C
:10038000E3E363636363E3E3C28206060C0C1830A5
:1003900060C08000007FE1800000000000000101DB
:1003A0000110B8BC3C1C0E0F070300000000000049
:1003B00080E17F080000000103060C0C18181010E3
:1003C000303021212120303010101018080C060385
:1003D000010000000000FF03010101010101010112
:1003E00001010101010101010101010101010101FD
:1003F0000103FF000000FF000000000000000000FB
:1004000000000000000000000000000000000000EC
:100410000000FF00000003030202020202020222A7
:10042000223E3E3E3E3E3E3E2222020202020202A8
:10043000020303000000FF03011919191999999982
:10044000999999999999999999999999191919191C
:100450000103FF000000FF000000000030313131D7
:1004600031313131313131313131313130300000E0
:100470000000FF0000000303020202020202022247
:10048000223E3E3E3E3E3E3E222202020202020248
:10049000020303000080E07018080C0406020283C7
:1004A000C1C1C1818101010303020206040C18309D
:1004B00070C080001E7FC08000000000000000FFB0
:1004C000FFFFC0616133331E1E0C0C0000000000F2
:1004D00080E17F000000010306040C0818101030B2
:1004E000202020202020202030101018080C060783
:1004F000030100000080E07018080C04060202836B
:10050000C1810101010181C383020206040C18307C
:1005100070C080001E7FC08000000000000000FF4F
:10052000FF7F00000000FFFF7F00000000000000D0
:1005300080E17F000000010306040C081810103051
:10054000202020202020202030101018080C060722
:1005500003010000000000000000000080402010A7
:1005600008080402010208080010102020408080C2
:100570000080800008001030F008048281808080B4
:10058000868E0000181030100060606000000000CF
:1005900000009C00000000000001010100000000BC
:1005A00000010101030202060C1620201010101891
:1005B0001010013E0000000000808080008040207C
:1005C0001008080603061810100020204080800044
:1005D00000808000001010303C634545C1C0808021
:1005E00086060000103020002060C06010B060015E
:1005F00001400F00000000000000000000000000AB
:10060000010101030206020404040F08191110106D
:100610001020233833003200310030004C4159455E
:1006200052004350534C4B0000000080C07078389B
:100630003C7C7EFE7E3E3C3C3C3878F07060E0C006
:10064000000000000000000000003CFF8080E0E3AC
:10065000828098FF808080929292BFFFFCF00081A0
:10066000F0FCFFFFFCF8000000000000010307079A
:10067000070F0F0F0F0F0F0F0F0F0F0F1F1F1F1F52
:100680000F0F0F07030000006F6C65645F72656EEB
:1006900064657239302064617461206661696C65DB
:1006A000640A006F6C65645F72656E6465722064D5
:1006B000617461206661696C65640A006F6C6564D1
:1006C0005F72656E646572206F6666736574206321
:1006D0006F6D6D616E64206661696C65640A00FD12
:1006E000377A585A000004E6D6B4460200210116B3
:1006F000000000742FE5A3E0019100D05D003D886B
:1007000089C65436C3174FE4DD62AF402AC4F86A85
:100710002942BE31BD8BDF2D72B5D4C78D0A96221A
:1007200074984A643EE2D4CE26E787611C8418366A
:10073000157B21A3672012FBB4416866501DBED50E
:100740002E8995525FF4806C25AA3AD817EF7177FD
:10075000DAB7E2C5A1539978FDAFD18FFDF0174FFD
:100760005E57D1648AF406A923522450D05D941BAD
:10077000448515FF20500738A6A082987F972389CB
:100780009525AB5C27342208442446763DDB89500E
:100790007B8E9C45F9AAF6522D942DDE16CE383468
:1007A000268A1A959B2648B2358477B30204B3C5CE
:1007B00060C2CAABF7F0921133CFFD2FA0A0C9BE23
:1007C0009E90B825411E37DDEFDC4F24225F0040AC
:1007D000F5CBC4AF3393470001EC0192030000E274
:1007E000B1BC8AB1C467FB020000000004595A2959
:1007F0000A002575002F002575005D28002564007E
:100800002000256400200025640020002564007C71
:100810000025303258006D6F7573656B6579205B0C
:1008200062746E7C782079207620685D287265700D
:100830002F61636C293A205B000000005C0100011D
:1008400000010000000100010001000100000001A2
:100850000001000100010001000100010001000190
:100860000000000100010001000100000001000182
:100870000001000100000001000100010001000171
:100880000001000100010001000000010001000161
:100890000001000000010001000100010000000152
:1008A0000001000100010001000100010001000140
:1008B0000000000100010001000100000001000132
:1008C0000001000100000001000100010001000121
:1008D00000010001000100010007087F0807003E39
:1008E0005B4F5B3E003E6B4F6B3E001C3E7C3E1CF4
:1008F00000183C7E3C18001C577D571C001C5E7F76
:100900005E1C0000183C180000FFE7C3E7FF000072
:100910001824180000FFE7DBE7FF0030483A060E16
:1009200000262979292600407F05050700407F051C
:10093000253F005A3CE73C5A007F3E1C1C0800083B
:100940001C1C3E7F0014227F2214005F5F005F5F4B
:100950000006097F017F00006689956A006060607B
:1009600060600094A2FFA2940008047E04080010B6
:10097000207E20100008082A1C0800081C2A0808ED
:10098000001E10101010000C1E0C1E0C0030383E03
:10099000383000060E3E0E06000000000000000089
:1009A000005F000000000700070000147F147F14A0
:1009B00000242A7F2A120023130864620036495655
:1009C000205000000807030000001C224100000026
:1009D00041221C00002A1C7F1C2A0008083E08082F
:1009E000000080703000000808080808000000605F
:1009F0006000002010080402003E5149453E0000FE
:100A0000427F4000007249494946002141494D3327
:100A1000001814127F10002745454539003C4A490B
:100A2000493100412111090700364949493600463C
:100A30004949291E00000014000000004034000055
:100A40000000081422410014141414140000412260
:100A50001408000201590906003E415D594E007C10
:100A60001211127C007F49494936003E4141412222
:100A7000007F4141413E007F49494941007F0909CA
:100A80000901003E41415173007F0808087F0000C2
:100A9000417F4100002040413F01007F0814224176
:100AA000007F40404040007F021C027F007F04081E
:100AB000107F003E4141413E007F09090906003E8A
:100AC0004151215E007F09192946002649494932D2
:100AD0000003017F0103003F4040403F001F2040D2
:100AE000201F003F4038403F006314081463000398
:100AF00004780403006159494D4300007F4141419E
:100B000000020408102000004141417F000402015E
:100B1000020400404040404000000307080000205D
:100B200054547840007F28444438003844444428D2
:100B300000384444287F0038545454180000087E7C
:100B400009020018A4A49C78007F0804047800001F
:100B5000447D4000002040403D00007F10284400BC
:100B60000000417F4000007C04780478007C080489
:100B7000047800384444443800FC18242418001831
:100B8000242418FC007C080404080048545454240D
:100B90000004043F4424003C4040207C001C2040D2
:100BA000201C003C4030403C004428102844004CAD
:100BB0009090907C004464544C44000008364100FE
:100BC000000000770000000041360800000201022A
:100BD0000402003C2623263C0000000000000040E8
:100BE0004040F0F8F8FF38FFF8F83FF8F8FF38FF1A
:100BF000F8F8F040404000000000000080C0C0C095
:100C0000800000C0C08000000080C0C000C0C000E4
:100C10000080C0C00000000000C0C0C0C0C000C054
:100C2000C000000000000000000000000000000004
:100C300000000000000000000000000000000000B4
:100C400000000000000000000000000000000000A4
:100C50000000000000000000C0F0F8FC3E1E06018D
:100C60000000007F4141417F007F4141417F000002
:100C700080C0E07E5B4F5BFEC00000C000DCD7DEC2
:100C8000DEDED7DC00C00000000000000000000035
:100C9000000000000000000000000000000000490B
:100CA0004949FFFFFFFFE0DFBFBF00BFBFDFE0FF3D
:100CB000FFFFFF49494900000000001F3F6060E05E
:100CC000BF1F007F7F071E381E077F7F007F7F0EBC
:100CD0001F3B716000000000007F7F0C0C0C007E49
:100CE0007E007F7E0303007F7E03037E7E03037FFF
:100CF0007E000F3E703C063C703E0F00327B49493F
:100D00003F7E007F7E0303001E3F69696F2600005F
:100D10000000000000000000030F1F3F3C787060DF
:100D20000000007F4141417F007F4141417F003011
:100D30007B7F7830202030787F3B0003000F7F0FCF
:100D40000F0F7F0F000300000000000000000000F4
:100D50000000000000000000000000000000000192
:100D60000101070F0F7F0F7F0F0F7E0F0F7F0F7F88
:100D70000F0F07010101000000000000000000004B
:100D80000101000000000000000000000000000061
:100D90000000000000000000000000000000000053
:100DA0000000000000000000000000000000000043
:100DB0000000000000000000000000000000000033
:100DC0000000000000000000000000000000000023
:100DD0000000000000000000000000000000000013
:100DE0000000000000000000000000000000000003
:100DF00000000000000000000000000000000000F3
:100E000000000000000000000000000000000000E2
:100E10000000000000000000006F6C65645F6F6EF2
:100E200020636D64206661696C65640A0000AF6FC1
:100E30006C65645F6F666620636D64206661696CD3
:100E400065640A0000AE5B435D005B445D005B537C
:100E50005D005B575D005B525D0009027B00040191
:100E600000A0FA0904000001030101000921110199
:100E70000001224000070581030800010904010068
:100E800002030000000921110100012222000705D0
:100E9000820320000107050303200001090402006A
:100EA0000103000000092111010001228100070552
:100EB000840320000109040300020300000009214B
:100EC000110100012222000705850320000107050A
:100ED00005032000011201000200000008667501F0
:100EE000000200010203011C037600690061006C2E
:100EF000003A0066003600340063003200620033BE
:100F000000630000001003640075006D0062007053
:100F10000061006400000012037200650079006245
:100F2000006F006100720064000000040309040007
:100F300011241FBECFEFDAE0DEBFCDBF11E0A0E08D
:100F4000B1E0E4E0FDE602C005900D92AA38B107D9
:100F5000D9F725E0AAE8B1E001C01D92A933B20794
:100F6000E1F70E94BA2B0C945C360C940000FF93BE
:100F7000EF93E0918A01F0918B01309709F0099588
:100F8000EF91FF910895FC018591803011F0EFDF22
:100F9000FBCF0895FF27E0E230E247FF0CC0419508
:100FA00097FF09C0EDE26095709580959095611D61
:100FB000711D811D911D27FF02C0219530E350E274
:100FC000AA27660F771F881F991FAA1FA41710F062
:100FD000A41B63955A95A9F7AA3008F0A95FA05DF4
:100FE000AF93F395611571058105910541F7ED32D8
:100FF00011F4EF93F395F21718F43F93F395FBCFA9
:101000008F91B5DFFA95E1F70895E991F99185910E
:10101000803021F0853219F0AADFF9CF089520E061
:10102000E89455915532C1F3503311F468945591B9
:101030005A3348F4505390F3220F022E220F220FFE
:10104000200D250FF4CF0EF42195899199915336F7
:1010500019F3533729F1533559F1BC0188279927E2
:10106000E8945C3621F489919991689455915436AD
:1010700039F446EF7EF077FF0DC08FEF9FEF0AC087
:1010800055374AE039F0583540E121F0523642E018
:1010900009F00895FF93EF937DDFEF91FF91B7CFB4
:1010A000FF93EF93FC0181918030B9F360DFFBCFB8
:1010B000FF93EF9368DFF1CFDF93CF93CDB7DEB728
:1010C0002596A3DFCF91DF910895CF93DF934091D1
:1010D000370550913805475353409A01205A3F4FE6
:1010E00021303240C0F020E032E0241B350B60910B
:1010F000350370913603FC01CA01240F351FC1E08E
:10110000D0E08217930750F0709336036093350355
:10111000DF91CF91089520E630E0E9CF4491DC01E2
:10112000A95CBC4F5C91451781F04C93AC01A5E0E4
:1011300056954795AA95E1F7DE0102C0AA0FBB1F9D
:101140004A95E2F7AD016A2B752B01963196D9CFFE
:1011500090913403899FC0011124811522E09207E8
:1011600014F090E080E0895C9C4F90933805809368
:1011700037050895E8EDF0E080818E7F808310923E
:10118000E2001092DA001092E100A0EEB0E08C9143
:1011900081608C9380818F77808319BCA7EDB0E04C
:1011A0008C918E7F8C9380818F7E80831092190327
:1011B00008952091E4003091E50095E6A901209181
:1011C000EC00822F817020FF06C08091E80080FF34
:1011D00006C080E008952091E80022FD1AC08091A9
:1011E0002603882389F0853089F08091EB0085FD06
:1011F0000FC02091E4003091E50042175307F9F247
:101200009150E1F684E0089582E0089583E0089526
:1012100081E00895EF92FF920F931F93CF937C018B
:101220008B010E94D908C82F811117C08091E80056
:1012300085FD0BC08091E8008E778093E8000E94C6
:10124000D908882399F3C82F08C0F70181917F013D
:101250008093F1000150110949F78C2FCF911F9114
:101260000F91FF90EF9008958091280387FF13C09E
:101270008091E80082FF06C08091E8008B77809320
:10128000E80004C0809126038111F2CF0895809177
:1012900026038823D9F38091E80080FFF8CF80915E
:1012A000E8008E77ECCF982F9093E900242F762FCB
:1012B00050E0891731F07091EC002091ED005091D1
:1012C000F00021FD07C09F5F973071F78093E90020
:1012D00081E008953091EB003E7F3093EB00309138
:1012E000ED003D7F3093ED003091EB0031603093A5
:1012F000EB007093EC002093ED005093F0002091F0
:10130000EE0027FDE0CF80E00895CF92DF92EF92CC
:10131000FF920F931F93CF93DF93C8EDD0E08881A6
:101320008F7E8883E7EDF0E080818160808384E0B8
:1013300082BF81E08093190388818E7F888302EECB
:1013400010E0F80110821092DA0081EEC82ED12C44
:10135000F601108288818F778883888180688883EE
:1013600088818F7D888319BC1092260310922703F1
:10137000109225031092240390EEE92EF12CF70130
:1013800080818B7F808388818160888342E060E0F8
:1013900080E00E945309F60180818E7F8083F801EE
:1013A000808181608083808188608083F701808173
:1013B0008E7F8083888180618883DF91CF911F91A8
:1013C0000F91FF90EF90DF90CF900895FC018091F6
:1013D0002E0390912F0386179707A0F061157105D2
:1013E00029F49091E8009E779093E80090E06115D1
:1013F000710551F4911108C08091E80082FF34C05A
:1014000080E00895BC01F2CF809126038823C1F1CA
:101410008530C1F18091E80083FD30C08091E80003
:1014200082FDEACF8091E80080FFE1CF8091F30058
:101430002091F200382F6115710519F0283031051F
:1014400058F091E02830310509F090E02091E80053
:101450002E772093E800CBCF81918093F1006150EB
:1014600071092F5F3F4FE7CF80912603882341F01A
:10147000853041F08091E80083FFBECF81E0089580
:1014800082E0089583E00895089580911B030895F4
:1014900087E797E7909301088093000888E19AE036
:1014A0000FB6F894A895809360000FBE90936000EB
:1014B000FFCF2FB7F89460910F03709110038091C4
:1014C0001103909112032FBF08959C01FC013296E5
:1014D0009FEF80E04191461751F09F3F19F4411171
:1014E00001C0982F8F5F8630A9F79F3F09F40895B8
:1014F000290F311D97FD3A95F901628308952091D6
:101500000C0330910D032817390771F090930D03E8
:1015100080930C03E0910A03F0910B03309721F0C4
:101520000084F185E02D09940895209108033091FD
:1015300009032817390771F0909309038093080372
:10154000E0910A03F0910B03309721F00680F781B8
:10155000E02D09940895E0910A03F0910B03309770
:1015600021F00190F081E02D099480E00895CF935F
:10157000DF93EC014091FD025091FE026091FF0269
:10158000709100032FB7F89480910F03909110038E
:10159000A0911103B09112032FBF841B950BA60BD2
:1015A000B70B843F9140A105B10518F58091FD026C
:1015B0009091FE02A091FF02B09100038093F90286
:1015C0009093FA02A093FB02B093FC0284EF91E0A7
:1015D000A0E0B0E08093F5029093F602A093F702AA
:1015E000B093F802D0930503C0930403DF91CF9129
:1015F00008950E94590A6093F9027093FA02809349
:10160000FB029093FC0282E390E0A0E0B0E0E2CF26
:10161000FC018481862351F492819923B9F06923D6
:10162000808583FF05C081E061110FC080E00895CF
:10163000892F8F7092959F70982B862F8F7062954F
:101640006F70682B81E09613F1CF089581E0FDCF94
:1016500090915502803F59F48091560287FF0DC04A
:101660001092560291110BC010924D0208C0813F9A
:1016700081F48091560218169CF3992381F0809191
:10168000570290915802892B09F064C010924B02C6
:101690000895823F49F497FFF0CF10925502809150
:1016A00056028111ECCFE0CF833F19F41916ACF349
:1016B000E4CF20915702893F29F41216F4F61092D4
:1016C0005702DBCF8A3F19F427FFD7CFF8CF2091FD
:1016D00058028B3F29F427FFD0CF10925802CDCF6C
:1016E0008C3F19F41216CCF3C8CF843F31F48091AB
:1016F00054028E7F80935402C0CF853F21F48091A5
:1017000054028D7FF7CF863F21F4809154028B7F66
:10171000F1CF873F21F480915402877FEBCF883F40
:1017200021F4809154028F7EE5CF8D3F31F480917A
:101730004C028E7F80934C02A0CF8E3F21F480918B
:101740004C028D7FF7CF8F3F09F097CF80914C02ED
:101750008B7FF0CF089580914C0280FD16C081FDF3
:1017600016C082FD16C080914B028823A1F08832FA
:1017700080F428E0829FC001112468E270E00E949A
:10178000A235862F672B39F0089582E0089584E012
:10179000089588E0089581E0089580914C0280FDCD
:1017A00014C081FD14C082FD16C080914D028823B3
:1017B00081F08E3180F420E5829FC00111246EE11A
:1017C00070E00E94A235862F089584E1089588E292
:1017D000089588E0089580E50895803F31F40E94DF
:1017E000CD0B8195809356020895813F19F40E9494
:1017F000CD0BF8CF823F31F40E94CD0B81958093C1
:1018000055020895833F19F40E94CD0BF8CF893F0C
:1018100029F40E94AB0B8093570208958A3F21F46C
:101820000E94AB0B8195F7CF8B3F31F40E94AB0B3D
:1018300081958093580208958C3F19F40E94AB0B58
:10184000F8CF843F31F48091540281608093540238
:101850000895853F21F4809154028260F7CF863F3E
:1018600021F4809154028460F1CF873F21F480916C
:1018700054028860EBCF883F21F48091540280614C
:10188000E5CF8D3F31F480914C02816080934C0212
:1018900008958E3F21F480914C028260F7CF8F3FF4
:1018A000B9F780914C028460F1CFF894E82FE2956B
:1018B000EF70F0E031A1282F2F7081E090E001C09F
:1018C000880F2A95EAF7982F9095932391A392A1D8
:1018D000892B82A3789408959091110292FF06C0FB
:1018E000282F28712830F9F4877F846093FF06C081
:1018F000282F28712831F1F4877E8461209112020B
:1019000020FF06C0382F38713830D9F4877F8160C6
:1019100021FF06C0282F28712831D1F4877E8161EC
:1019200094FD877E0895282F24712430F9F68B7F4B
:101930008860DCCF282F2471243101F78B7E8861E9
:10194000DDCF382F3171313019F78E7F8860E0CFCD
:10195000282F2171213121F78E7E8861E1CFCF932D
:10196000DF93EC0182389105A9F1D8F58133910517
:1019700009F496C048F58932910509F48AC08A971E
:1019800009F495C0C11521E5D20708F0BCC0C11506
:1019900030E5D30708F014C1C83ED10508F09CC05B
:1019A000C03ED10560F5C83AD10508F087C0C53AF8
:1019B000D10508F0FDC0C130D10509F12097F9F03B
:1019C000C430D105E0F440C08533910509F45AC014
:1019D000C997C1F680911102837089F0C0EED0E002
:1019E0000EC0833E910599F170F4803E910501F19E
:1019F000823E910539F68091110282FD21C0CE010F
:101A0000DF91CF910895863E910561F1873E910562
:101A100071F1843E910509F0B5CF8091120281FFEA
:101A2000EECF80911102C7EED0E084FD0DC0E7CF6C
:101A30008091110280FD12C19091120290FFDFCFC0
:101A4000C3EED0E084FFDBCFD0E0C0E0D8CF809100
:101A5000110282FD06C19091120290FDBFCF84FF5A
:101A6000CECFF2CF8091110283FDDDCFC8CF809120
:101A7000110283FDF9C09091120291FFF0CFC4EEE4
:101A8000D0E0BDCF8091110285FFB9CFC9E2D0E08F
:101A9000B6CF8091110285FFB2CFC5E3D0E0AFCFC2
:101AA0008091110286FFABCFCAE2D0E0A8CF80912F
:101AB000110286FFA4CFC1E3D0E0A1CFCF3BD10577
:101AC00018F6C85AD0E0CC0FDD1FCE5DDE4F09906E
:101AD000D881C02DD46493CFC11540E2D40758F407
:101AE000C11581E0D80708F08ACFC03FD10508F4BE
:101AF000ABCFD06584CFC11590E4D90708F4A4CF4B
:101B0000DF70D06A7CCFC11525E5D20700F5C1157D
:101B100034E5D30708F08AC0C11543E5D40708F0BF
:101B200071C0C11582E5D80708F467C0CE01837083
:101B3000992721E030E002C0220F331F8A95E2F797
:101B4000C695C69580E2C89FE001112452C0C11518
:101B500099E5D907A8F4C11528E5D20708F06BC0AC
:101B6000C11536E5D30708F06FCF8C2F0E946C0C9F
:101B7000C82FD0E0DC2FCC27CC27DF71D0623FCF3D
:101B8000C1154AE5D40708F45BC0CE019056811513
:101B9000904208F059CF8D2F8F710E946C0C90E00D
:101BA000982F882788279F719C012C2BE901E6CF6D
:101BB000C55AD0E0C15EDE4FC881D0E0D0641FCFEF
:101BC000CE01E4E096958795EA95E1F783702C2F96
:101BD00026952695237040E2249F90011124382BEE
:101BE0008C2F8370C1E0D0E002C0CC0FDD1F8A953E
:101BF000E2F7C22BD32BDC6802CFDC2FCC27C16FDE
:101C0000D06AFDCECE018370992721E030E002C07A
:101C1000220F331F8A95E2F7C695C69590E2C99FB9
:101C2000E0011124C22BD32BDA68E9CEDC2FCC27BC
:101C3000C46FD06AE4CEDC2FCC27C06FD06ADFCE71
:101C40008C2F8F700E946C0C34E0D695C7953A9516
:101C5000E1F7CF709C2FEC01D069D1CEC9E3D0E081
:101C6000CECEC2EED0E0CBCEC6EED0E0C8CE8091D4
:101C70000902882331F01092090210920802109292
:101C8000070208958095909106029823909306028A
:101C900008951092FC011092FB011092FA01089530
:101CA0008091F90181111092F9010895EEE8F1E0B7
:101CB0009191891303C0DF0111971C9291E0E439DF
:101CC000F907B1F708958091F8019091C701981331
:101CD00001C008958F5F8770FACF9E3F51F1292F81
:101CE000220F220FE22FE90FE80F9E2F9770E69543
:101CF000E695E69583E0E89FF0011124E854FE4F55
:101D000050E040E080E0219130E0092E02C036959D
:101D100027950A94E2F721703327042E01C0220F81
:101D20000A94EAF7822B4F5F5F4F4330510559F712
:101D3000089580E008959E3F71F1292F220F220F10
:101D4000E22FE90FE80F8E2F877041E001C0440FAA
:101D50008A95EAF7E695E695E69583E0E89FF00137
:101D60001124E854FE4F30E020E070E05191DF0193
:101D70001197CB01022E02C0969587950A94E2F73F
:101D8000817081958527842385278C932F5F3F4F12
:101D90002330310559F70895829590E09C01220F78
:101DA000331F220F331F2C7C95958795959587952A
:101DB0008373282B30E0C901880F991F8A7A3595E3
:101DC00027952575822B0895982F92959F7011F075
:101DD000892F94E0282F2695269511F09E5F822F5B
:101DE000869509F09F5F892F08959C013A952115EA
:101DF0003F4150F5FC01EE27F170BC01662772707F
:101E0000AC01442754709C012227387094FF0EC007
:101E100080E1EF2B09F480E0672B09F08062452B0D
:101E200009F08064232B89F08068089581E0EF2B0E
:101E300009F480E0672B09F08260452B09F084608B
:101E4000232B19F08860089580E00895CF92DF92E7
:101E5000EF92FF920F931F93CF93DF936C017B015F
:101E600064E670E088E70E948134EC0197FD12C0BF
:101E700010E000E0F601E00FF11F849164E670E0ED
:101E80000E94FB34EC01892B29F40F5F1F4F0E15C4
:101E90001F0581F70E947E35CE01DF91CF911F9102
:101EA0000F91FF90EF90DF90CF9008958091F30213
:101EB0009091F402911103C091E08927089588233D
:101EC00089F062E070E084E49EE00E94260F892B96
:101ED00039F08FE29EE00E94C3078091F3020895DB
:101EE0001092F3028091F302E7CFCF93C091F302F7
:101EF0008091F4028823F1F00E94590A605A7541DA
:101F00008F4F9F4F6093EF027093F0028093F10226
:101F10009093F202C1110CC062E070E08DE29EE08D
:101F20000E94260F892B49F089E19EE00E94C30799
:101F3000C091F3028C2FCF91089581E08093F3023A
:101F4000F7CF9FB7F894109217039FBF9091260385
:101F5000943009F048C02091E9002F703091EC00D6
:101F6000932F917030FD90E8922B25E02093E900AB
:101F70002091EB0020FF34C02091EE0027FF30C0FD
:101F800020911603222321F02091E80025FF28C08C
:101F90001092160326E03091E80035FF14C08093BC
:101FA000F1008091E80085FD27C08091E80080FF66
:101FB000FCCF8091E8008E778093E8009F7090932B
:101FC000E90080E0089530912603343049F43091DF
:101FD000EB0035FD05C0215041F481E080931603EC
:101FE0009F709093E9008FEF0895EFE9FFE031973C
:101FF000F1F700C00000CFCF8FB7F89421E0209315
:1020000017038FBFDBCF8093130370931503609387
:102010001403809126038430F9F48093E9008FEF54
:102020009091E800815095FD06C095ED9A95F1F7E5
:1020300000008111F5CF8091E80085FF0DC050E0D0
:1020400040E063E070E083E193E00E940A09809140
:10205000E8008E778093E8000895BC0184E00C943A
:102060000310BC0183E00C9403109C0184E0809376
:10207000E9009FEF8091E800915085FD06C085ED55
:102080008A95F1F700009111F5CF8091E80085FF66
:102090000CC050E040E066E070E0C9010E940A090F
:1020A0008091E8008E778093E8000895CF93DF93C6
:1020B000EC0181E08093E9008FEF9091E80081507E
:1020C00095FD06C095ED9A95F1F700008111F5CFC9
:1020D0008091E80085FF14C050E040E068E070E0C7
:1020E000CE010E940A098091E8008E778093E80073
:1020F00088E0FE01ACE1B3E001900D928A95E1F732
:10210000DF91CF9108951F93CF93DF93162F8A30DD
:1021100031F481E0DF91CF911F910C9428118D3023
:1021200011F480E0F7CFC0913705D091380596E0E3
:10213000FE01A9EEB2E001900D929A95E1F7803E82
:10214000A8F186E0FE0111928A95E9F7C091370562
:10215000D0913805111136C046E050E0BE0189EE3D
:1021600092E00E94EE359E0127533340892BA9F55A
:102170002A5F3F4F40913403642F70E0C9010E94F1
:102180008235481B463010F4240F311D211572E0B2
:10219000370710F030E020E0295C3C4F30933805E1
:1021A00020933705DF91CF911F910895F6E08F9F1F
:1021B000B00111246752774F46E050E0CE010E94F3
:1021C000E535C4CF9E012A5F3F4FFE012E173F0722
:1021D00019F2808180958193F9CFC90145E09695E8
:1021E00087954A95E1F741E050E0BA0102C0660FD9
:1021F000771F8A95E2F7CB01609135037091360322
:10220000862B972BB9016B5F7F4FE5E0769567953D
:10221000EA95E1F702C0440F551F6A95E2F7842B57
:10222000952B9093360380933503A2CF1F93CF93C2
:10223000DF93EC01162FFE018491811104C0DF9120
:10224000CF911F910895612F0E9483102196F3CFA3
:10225000CF93382FE0913705F0913805E753F340DD
:1022600020913403622F70E0CF010E948235281B39
:10227000822F332369F066E00E949635C82FC15043
:1022800010F4CF91089560E080E20E948310F7CFB0
:102290009F01280F311D2115324018F080E0F0E039
:1022A000E0E08E0F9F2F911D895C9C4F9093380525
:1022B00080933705E6CFCF93DF93C7E3D1E060E0AB
:1022C000CE010E9420362196C11584E0D807B9F7C7
:1022D000DF91CF9108951F93CF93DF93122F843016
:1022E00010F5623000F54230F0F428E0829FC00122
:1022F000112424E0629FE00111248C0F9D1FC42F44
:10230000D0E0CC0FDD1FC80FD91FC953DF4F632F9B
:10231000CE010E942036612FCE010196DF91CF9130
:102320001F910C942036DF91CF911F9108950F9348
:102330001F93CF93DF938901843048F5643038F5DB
:10234000453028F521153C4531F420911401309198
:102350001501232BE1F0C42FD0E0CC0FDD1F9AE054
:10236000699FC00DD11D112498E2899FC00DD11D18
:102370001124612FCE0187960E942036602FCE0156
:102380008896DF91CF911F910F910C942036DF91A9
:10239000CF911F910F910895CF93C82F6FEF8111A7
:1023A00063EA83E290E00E9420366FEFC1116AE396
:1023B00084E290E00E9420366FEFC11167E785E26A
:1023C00090E0CF910C9420367F928F929F92AF92A3
:1023D000BF92CF92DF92EF92FF920F931F93CF9312
:1023E000DF93CDB7DEB72A970FB6F894DEBF0FBEE6
:1023F000CDBFA0901401B090150181E090E09093C2
:1024000015018093140189E3C82E88E0D82E10E0CE
:10241000760100E015C0F40125913491472D602F1D
:10242000812F0E94971182E0880E911C739495E091
:102430007912F1CFEAE0EE0EF11C0F5F043019F0D3
:102440004701712CE8CF21E030E040E060E0812FCF
:102450000E946B1121E030E041E060E0812F0E949A
:102460006B1121E030E040E061E0812F0E946B11B0
:1024700021E030E041E061E0812F0E946B111F5F9D
:10248000F8E2CF0ED11C143009F0C2CFCE01019674
:102490007C018AE0F70111928A95E9F78FEF9FEFAF
:1024A0009E838D8387E08A8707EE10E04AE050E044
:1024B000B801C7010E944436065F1F4F0733F1E0A1
:1024C0001F07A1F7B0921501A09214012A960FB62A
:1024D000F894DEBF0FBECDBFDF91CF911F910F915A
:1024E000FF90EF90DF90CF90BF90AF909F908F9034
:1024F0007F90089580E00E94CC1160E086E290E039
:102500000E9420360E94E4110E945B1181E00C942D
:10251000CC110F931F93CF93DF93843038F5623043
:1025200028F528E0829FC001112434E0639FB001A8
:102530001124860F971FC42FD0E0CC0FDD1FC80FCA
:10254000D91FC953DF4FCE010E941236082F10E069
:10255000102F0027CE0101960E9412369801282BD9
:10256000C901DF91CF911F910F91089590E080E014
:10257000F8CF0F931F93CF93DF93843030F56430FF
:1025800020F5453010F5C42FD0E0CC0FDD1F2AE038
:10259000629FC00DD11D112438E2839FC00DD11D53
:1025A0001124CE0187960E941236082F10E0102FBA
:1025B0000027CE0188960E9412369801282BC90167
:1025C000DF91CF911F910F91089590E080E0F8CFB7
:1025D000462F2091E7023091E802232B91F47E3FB1
:1025E00039F46E3F71F48091E5029091E60208950E
:1025F000843038F4743028F4653018F4672F0C9464
:10260000B91290E080E00895CF92DF92FF920F938D
:102610001F93CF93DF936C01009133038091590294
:10262000082BC7E0D0E010E0FC2EC8010C2E02C041
:10263000959587950A94E2F780FD0CC02197A0F745
:10264000F12C8F2DDF91CF911F910F91FF90DF9093
:10265000CF900895B6018C2F0E94E8120E94AF0C13
:10266000019761F3EECFCF93DF93EC010E94041347
:10267000BE010E94E812DF91CF910C94AF0CFC01D7
:10268000808191810E94331392959F70963091F0D2
:1026900058F4925F9F70923058F4803F19F030F4F4
:1026A000883E30F481E008959A5FF4CF843FD1F3FF
:1026B00080E00895883EB0F3813FD1F7F3CF83E205
:1026C00090E00E941236833A89F484E290E00E94FE
:1026D00012368A3359F485E290E00E94123691E076
:1026E000873709F090E0892F8170089580E0FCCF52
:1026F000CF9384E090E00E941236C82F82E290E0EF
:102700000E941236982F8C2FCF9108958F929F920E
:10271000AF92BF92CF92DF92EF92FF920F931F93EF
:10272000CF93DF93CDB7DEB72A970FB6F894DEBF0D
:102730000FBECDBF0DE612E08BE5C82E82E0D82E8D
:1027400097EEE92EF12C27E0922E3AE5A32E32E007
:10275000B32E88248394D6010D931D936D014AE016
:1027600050E0B701CE0101960E940236F80138967A
:10277000DF01892D1D928A95E9F789819A81D80117
:1027800011969C938E938F8112968C9312978D81C4
:1027900013968C931397888514968C931497898538
:1027A00015968C9315978B819C8117969C938E938D
:1027B000169718961C9218978A8587FF4BC01E960D
:1027C0001C921E921D9780FF03C0D80118968C9210
:1027D00081FF04C0F80190859260908782FF07C056
:1027E000D80118969C911897946018969C9383FF33
:1027F00004C0F80190859860908784FF07C0D801D5
:1028000018969C911897906118969C9385FF04C028
:10281000F801808580628087015F1F4FFAE0EF0E2C
:10282000F11C87E3E81681E0F80609F094CF2A96B8
:102830000FB6F894DEBF0FBECDBFDF91CF911F91D1
:102840000F91FF90EF90DF90CF90BF90AF909F904F
:102850008F900895F801B686A586B5CF69EE7EEF14
:1028600090E080E00E943E3660E082E090E00E94CE
:10287000203660E083E090E00E94203610925902FA
:1028800060E084E090E00E94203660E082E290E028
:102890000E94203660E085E090E00E94203660E0F3
:1028A00086E090E00E9420366FEF87E090E00E9483
:1028B000203640E050E0BA0188E090E00E943236D5
:1028C00060E08DE090E00E94203640E050E0BA01E8
:1028D00088E190E00E94323660E087E190E00E945B
:1028E000203640E050E0BA018CE190E00E943236A0
:1028F00070E060E080E290E00E943E3640E050E010
:10290000BA0188E190E00E94323680E00E94CC114A
:102910000E947A1240E050E0BA018FE090E00E94FD
:10292000323640E050E0BA0183E190E00C94323658
:102930001F920F920FB60F9211242F933F934F9334
:102940005F936F937F938F939F93AF93BF93EF9317
:10295000FF938091E10082FF15C08091E20082FF29
:1029600011C08091E1008B7F8093E10020911803DA
:102970002F5F822F62E30E949635992309F4C0C02D
:10298000209318038091DA0080FF28C08091D8003E
:1029900080FF24C08091DA008E7F8093DA008091DE
:1029A000D90080FFE3C080E189BD82E189BD09B41F
:1029B00000FEFDCF81E08093260386E49EE00E9426
:1029C000C30780911903811109C00E94BA080E94AF
:1029D00085098091E20084608093E2008091E100AB
:1029E00080FF1BC08091E20080FF17C08091E20051
:1029F0008E7F8093E2008091E20080618093E2000C
:102A00008091D80080628093D80019BC85E08093C3
:102A100026038EE49EE00E94C3078091E10084FFBC
:102A20002FC08091E20084FF2BC080E189BD82E14C
:102A300089BD89B5982F917080FFFBCF8091D80018
:102A40008F7D8093D8008091E1008F7E8093E1009C
:102A50008091E2008F7E8093E2008091E2008160AD
:102A60008093E20080912703882309F489C084E0E1
:102A70008093260382E59EE00E94C307809126038F
:102A80008091E10083FF2BC08091E20083FF27C08B
:102A90008091E100877F8093E10082E080932603AC
:102AA000109227038091E1008E7F8093E100809156
:102AB000E2008E7F8093E2008091E200806180934B
:102AC000E20042E060E080E00E9453098091F00063
:102AD00088608093F00086E59EE00E94C307FF9126
:102AE000EF91BF91AF919F918F917F916F915F9186
:102AF0004F913F912F910F900FBE0F901F901895FF
:102B00001092180380911703882309F43BCF80911A
:102B100026038430C1F49091E9009F702091EC006D
:102B2000822F817020FD80E8892B95E09093E90049
:102B30009091EB0090FF04C09091EE0097FD08C0CB
:102B40008F708093E900109217031CCF1092F10050
:102B50009091E80095FDFACF9091E80090FFF0CFBA
:102B60009091E8009E779093E800EACF19BC10920C
:102B700026038AE49EE00E94C307109219032ECF19
:102B80008091E30087FD93E09093260373CF7894C0
:102B90001F921FB61F9211248F939F93AF93BF93E1
:102BA00080910F0390911003A0911103B091120333
:102BB0000196A11DB11D80930F0390931003A09364
:102BC0001103B0931203BF91AF919F918F911F900A
:102BD0001FBE1F9018959C014FB7F89480910F036A
:102BE00090911003A0911103B09112034FBF821B6B
:102BF000930B08952FB7F89480910F0390911003D1
:102C0000A0911103B09112032FBF089580914E023D
:102C100083FF7EC086E198E00E94C3078091540242
:102C20001F928F9381E198E09F938F930E945C089D
:102C30008FE098E00E94C30780915502282F082E4C
:102C4000000C330B3F938F938CE098E09F938F930E
:102C50000E945C088AE098E00E94C30780915602B7
:102C6000282F082E000C330B3F938F9387E098E0BA
:102C70009F938F930E945C0885E098E00E94C307B1
:102C800080915702282F082E000C330B3F938F930F
:102C900082E098E09F938F930E945C0880E098E028
:102CA0000E94C30780915802282F082E000C330B76
:102CB0003F938F938DEF97E09F938F930E945C08D3
:102CC0008AEF97E00E94C30780914D021F928F9375
:102CD00087EF97E09F938F930E945C0885EF97E0C2
:102CE0000E94C30780914C021F928F9382EF97E05E
:102CF0009F938F930E945C088FEE97E00E94C3071A
:102D00008DB79EB74C960FB6F8949EBF0FBE8DBF81
:102D10000E94FA159C019091550280915602982BC1
:102D200021F03093520220935102909157028091EA
:102D30005802982B21F03093500220934F02E091DB
:102D40000A03F0910B03309749F082E0809353021D
:102D50000480F581E02D83E592E0099408959F9227
:102D6000AF92BF92CF92DF92EF92FF920F931F9399
:102D7000CF93DF9300D000D0CDB7DEB719821A828F
:102D80001B821C8280E5E82E81E0F82E10E000E036
:102D9000CC24C394D12C29E5A22E21E0B22EF70138
:102DA00081917F018F3F09F445C0F894E82FE295A7
:102DB000EF70F0E021A18F70A60102C0440F551FF3
:102DC0008A95E2F7CA01922F982B91A392A1809540
:102DD000892382A3789400C0E4E5F1E0912C31E0EE
:102DE00021912F3F09F46BC0A22FA295AF70B0E0E4
:102DF00090968C9190E02F7002C0959587952A95BA
:102E0000E2F780FD5CC0832F982A330FAE16BF0611
:102E100039F7F701319780818F3F11F00E94550CEF
:102E200050EA5A95F1F7E1E0F0E0EC0FFD1FE00FFA
:102E3000F11F90820F5F1F4F0430110509F0AFCFD3
:102E400044E050E0BE016F5F7F4F8DE092E00E9452
:102E5000EE3511E0009709F410E0892B91F189819A
:102E60009A81AB81BC8180930D0290930E02A09356
:102E70000F02B093100281E080930C020E94FA15B9
:102E800090930B0280930A0280910A0290910B02A8
:102E90000E94EB150597C8F080910D0280934702C0
:102EA00080910E028093480280910F028093490224
:102EB0008091100280934A0210920C0206C080E0BA
:102EC000A3CF80910C028111DFCF812F0F900F9043
:102ED0000F900F90DF91CF911F910F91FF90EF9086
:102EE000DF90CF90BF90AF909F90089580910602A1
:102EF00090910502892B80938C018091090288238F
:102F000019F10E94FA152091070230910802821BE4
:102F1000930B8838934110F00E94370E80918C01FA
:102F200090910902892B80938C0120E08EE891E03A
:102F3000FC013191CF0131112F5FF1E084399F07FE
:102F4000B9F721110E94370E80910103809590916D
:102F50008C01892390910203892B80938C0148E096
:102F600050E06DEF71E08CE891E00E94EE35892B26
:102F7000A9F088E0ECE8F1E0ADEFB1E001900D924E
:102F80008A95E1F7E0910A03F0910B03309731F055
:102F90000280F381E02D8CE891E00994089590E09F
:102FA00080E00E94950A90E080E00E947F0A1092E3
:102FB00005020E94761786E0E3E5F2E0DF011D924C
:102FC0008A95E9F710924D0210924B0210924C0232
:102FD0000C940616809333030C94CF17809133031F
:102FE000982F9670963019F488600C94EA17877FB2
:102FF000FCCF21E030E001C0220F8A95EAF720954E
:103000008091330382230C94EA179091FC01809500
:1030100089238093FC01282F277091F4282F082EF4
:10302000000C330B9217130659F09091120292FD87
:1030300007C08595859585950E94F9170C94490ED2
:103040000895CF93C0911202C2FB992790F9981767
:1030500099F080FBC2F9C09312026091110284E0E2
:1030600090E00E9420366C2F82E290E00E94203691
:1030700082E0CF910C940518CF91089521E030E0C3
:1030800001C0220F8A95EAF780913303822B0C94BA
:10309000EA17809359020C94CF1710920602EEE8BB
:1030A000F1E086E0DF011D928A95E9F70C94CF17D5
:1030B0001F93CF93DF93CDB7DEB7AA970FB6F894DF
:1030C000DEBF0FBECDBF88E293E02091F100DC01AE
:1030D0002D93CD01B3E080339B07B9F7809129038D
:1030E000833009F472C0B8F4813009F449C08230E9
:1030F00009F4B3C08091E80083FF9CC2809128034B
:10310000909129039A3008F095C2E92FF0E0E25A35
:10311000F94C0C94B6358A3009F48EC08B3009F422
:1031200071C0893039F780912803813219F7809175
:103130002C0390912D03009711F00297D9F68091FE
:10314000E800877F8093E8008091E80082FF38C024
:103150009091F3008091F200029731F48091F10098
:10316000813011F0863021F48091F10080931B03AF
:103170008091E8008B778093E8000E943409BACFF1
:1031800080912803813A09F0B5CF8091E800877FCC
:103190008093E80080912C0390912D03892B61F49A
:1031A00068E08CE193E070E00E94E6098091E8001D
:1031B0008B778093E8009ECF60E090E080E0F3CFD3
:1031C000809126038111C0CF95CF80912803813A49
:1031D00009F090CF80912C0390912D03892B09F059
:1031E00089CF8091E800877F8093E8008091E80094
:1031F00080FFFCCF809116018093F1008091E80060
:103200008E77B9CF80912803813209F073CF8091F6
:103210002C0390912D03892B09F06CCF8091E8004D
:10322000877F8093E8000E94340980912A0380936D
:1032300016010E944D185ECF80912803813209F05B
:1032400059CF8091E800877F8093E8000E9434097D
:1032500080912B0380931A034DCF80912803813AEC
:1032600009F048CF8091E800877F8093E800809143
:10327000E80080FFFCCF80911A03BECF803899F020
:10328000823809F0D7C180912C038F70873008F005
:10329000D1C18093E9008091EB0085FB882780F9FC
:1032A0001092E90006C080912403909125039111AA
:1032B00082609091E800977F9093E8008093F100FE
:1032C0001092F1008091E8008E77B0C1882309F454
:1032D0009EC1823009F0AEC180912A038111A1C143
:1032E00080912C038F702FEF280F263008F0A2C199
:1032F0008093E9002091EB0020FF93C1933031F4DB
:103300008091EB0080628093EB008BC19091EB0089
:1033100090619093EB0021E030E001C0220F8A958C
:10332000EAF72093EA001092EA008091EB008860AF
:10333000EACF81117FC110912A031F778091E300AA
:103340008078812B8093E3008091E800877F8093D1
:10335000E8000E9434098091E80080FFFCCF809152
:10336000E30080688093E30082E0111183E08093A2
:10337000260360C18058823008F05CC120912A0386
:1033800030912B032C3DE3E03E07A1F583E08A83D7
:103390008AE289834FB7F894DE01139620E03EE07D
:1033A00051E2E32FF0E050935700E49120FF03C077
:1033B000E295EF703F5FEF708E2F90E0EA30C0F043
:1033C000C7968D939D932F5F243159F74FBF8091FE
:1033D000E800877F8093E8006AE270E0CE01019602
:1033E0000E94E6098091E8008B778093E80022C173
:1033F000C096E7CF80912C0390912D03432F552742
:103400004330510509F44AC078F54130510509F4BB
:1034100085C08BE790E0EAE5FEE04230510509F017
:1034200009C12091E800277F2093E80020912E0316
:1034300030912F038217930708F49C0140E0211577
:10344000310509F070C041116EC08091E80082FD25
:10345000C9CF80912603882329F2853019F2809103
:10346000E80083FFF2CFBECF4132510509F447C0D7
:103470004232510509F0DEC08430910508F0DAC00F
:10348000FC01EE0FFF1FE758FE4F0190F081E02D89
:103490008B589E4FDC018C9190E01DC0332721306A
:1034A0003105E9F02115310579F022303105F9F0C7
:1034B0002330310509F0BEC0E7EEFEE0E4918E2F27
:1034C00090E0E7EEFEE007C0EBE2FFE0E4918E2F34
:1034D00090E0EBE2FFE0009709F4ACC0A2CFE7E197
:1034E000FFE0E4918E2F90E0E7E1FFE0F4CFE5E02C
:1034F000FFE0E4918E2F90E0E5E0FFE0ECCF843038
:10350000910508F097C0880F991FFC01EF57FE4FF7
:103510000190F081E02D89E090E083CF82E190E09E
:10352000E5EDFEE07ECF80912603882309F45ACF93
:10353000853009F457CF8091E80083FD53CF809107
:10354000E80082FD82CF8091E80080FF78CF9091E3
:10355000F3008091F2002115310519F088309105B2
:1035600050F041E0089709F040E08091E8008E7744
:103570008093E80064CF44914093F100319621504C
:1035800031090196E8CF803809F054C08091E800F5
:10359000877F8093E800809127038093F10092CE8B
:1035A000811148C010912A03123008F043C0809165
:1035B000E800877F8093E800109327030E94340976
:1035C000112311F084E005C08091E30087FDFACF5C
:1035D00081E08093260342E061EC81E00E94530980
:1035E00042E261EC84E00E94530942E261EC82E035
:1035F0000E94530942E260EC83E00E94530942E2D8
:1036000061EC85E00E9453098091260313C08091EC
:103610002A03813079F481E0933009F080E08093CF
:1036200025031092E9008091E800877F8093E800ED
:103630000E9434098091E80083FF0AC08091E8006D
:10364000877F8093E8008091EB0080628093EB009D
:10365000AA960FB6F894DEBF0FBECDBFDF91CF9113
:103660001F9108951F920F920FB60F9211242F935E
:103670003F934F935F936F937F938F939F93AF93FA
:10368000BF93CF93DF93EF93FF93D091E900DF7067
:103690008091EC00C82FC17080FDC0E81092E90055
:1036A0008091F000877F8093F00078940E945818F2
:1036B0001092E9008091F00088608093F000CD2B9B
:1036C000CF70C093E900FF91EF91DF91CF91BF914F
:1036D000AF919F918F917F916F915F914F913F91AA
:1036E0002F910F900FBE0F901F901895882341F0D7
:1036F0008095909105028923809305020C9476179A
:103700000895882339F090910502982B9093050233
:103710000C9476170895882321F00E94420E0C9491
:1037200076170895882339F090910602982B90938C
:1037300006020C9476170895882361F19CEF980F88
:10374000913A20F40E94560E0C94761790E2980F4E
:10375000983050F4877091E001C0990F8A95EAF78C
:10376000892F0E94420EF0CF9BE5980F933020F4F2
:1037700090E080E00C94950A98E5980F973120F43A
:1037800090E080E00C947F0A803F20F00E94280B9C
:103790000C9406160895FF920F931F93CF93DF9317
:1037A000F82E00910603109107030115110509F485
:1037B00049C0109205031092040310920103109265
:1037C0000203D8011696CD91DC919E013A95211500
:1037D0003F4108F4D07ED1E0C11101C0D0E0D80152
:1037E0001996ED91FC911A97309731F01B966D91D7
:1037F0007C9180E00995D823DD2339F08CEF8C0F84
:10380000813A38F58C2F0E94560EFF2099F0E091F6
:103810000603F0910703808584FD0CC080910303AB
:10382000882341F0808191819C0121503109253A02
:103830003D45A8F00E9476171092070310920603E8
:1038400010920303C801DF91CF911F910F91FF9058
:1038500008950E9476178C2F0E949C1BD6CF0E9441
:10386000B70AE8CFCF93C82F882309F44FC08CEF55
:103870008C0F813A90F4EEE8F1E08191C81709F4D9
:103880003FC081E0E439F807C1F76C2F8CE891E084
:103890000E94650ACF910C94761780E28C0F8830D5
:1038A00068F4C77021E030E001C0220FCA95EAF742
:1038B00080910602822B80930602ECCFEBE5EC0FA1
:1038C000E33040F4F0E0E15EFE4F808190E0CF9184
:1038D0000C94950AE8E5EC0FE73150F4F0E0EE0FB8
:1038E000FF1FEE5DFE4F80819181CF910C947F0A86
:1038F000C03F60F08C2F0E94ED0BCF910C94061608
:103900008C2F0E94560E0E947617BFCFCF9108953C
:103910001F93CF93DF93182FD0E0C0E0893311F4C9
:10392000C0E5D0E0812F0E94321C209731F4812F16
:10393000DF91CF911F910C949C1B8FE99FE0019721
:10394000F1F700C000002197F0CF0F931F93CF93A2
:10395000DF93C62FD42F022FFC0182818823A1F090
:10396000609332030E94FA159093310380933003E1
:10397000C77081E001C0880FCA95EAF7DF91CF9147
:103980001F910F910C94921B80913203681335C0E4
:1039900080913003909131030E94EB15883C910592
:1039A00060F510E21D0FCD17B9F080E28C0F883062
:1039B00040F4C77081E001C0880FCA95EAF70E9401
:1039C0008B1B183048F481E09D2F977001C0880F41
:1039D0009A95EAF70E94921B802F0E94881C18304B
:1039E00098F4D77081E001C0880FDA95EAF7DF918B
:1039F000CF911F910F910C948B1BC77081E001C078
:103A0000880FCA95EAF7F3CFDF91CF911F910F91FD
:103A10000895AF92BF92CF92DF92EF92FF920F93F1
:103A20001F93CF93DF93EC018AE0A82E28812223F5
:103A300009F48CC02130C9F599818A81913021F433
:103A400022960E94881C05C0923029F422960E947A
:103A5000321C2196EBCF933021F422960E949C1BBE
:103A6000F8CF943011F02196F4CF229630E020E088
:103A7000AE014F5F5F4F8053990B8A30910550F034
:103A80002150310930F38FE99FE00197F1F700C031
:103A90000000F6CFA29EB001A39E700D11249C01E0
:103AA000260F371F8981EA01E3CFE22FF0E0EF51C3
:103AB000FE4FB490822F86958695869590E0FC0106
:103AC000EF52FE4FE4902770F12C022E02C0F594C5
:103AD000E7940A94E2F731E0E322FF24FC01EF537C
:103AE000FE4FC490D12C022E02C0D594C7940A94E4
:103AF000E2F731E0C322DD24FC01EF54FE4F0491D4
:103B000010E002C0159507952A95E2F7017011277C
:103B1000E114F10419F081EE0E94321CC114D104A9
:103B200019F086EE0E94321C8B2D0E94881CCD2835
:103B300019F086EE0E949C1BEF2819F081EE0E947E
:103B40009C1B012B09F485CF8CE27BCFDF91CF91B9
:103B50001F910F91FF90EF90DF90CF90BF90AF90AB
:103B60000895CF93DF93EC010E94F50E9E01205E35
:103B700031092830310510F0209739F40E94921B4A
:103B80008C2FDF91CF910C94321C0E94811BF8CFB7
:103B90009091120292FD10C098E0899F900111242B
:103BA000622B6093FC010E943E180E94FA159093CC
:103BB000FB018093FA0108950C943E181F93CF9354
:103BC000DF93CDB7DEB767970FB6F894DEBF0FBEB1
:103BD000CDBF4B8B5C8B6D8B7E8B8F8B611110926D
:103BE00005021A8A198A85E0FE017396DE011D9688
:103BF00001900D928A95E1F78091120282FD1CC01E
:103C00000E94FA152091FA013091FB01821B930B5F
:103C10008838934120F08091FC0182FF7FC00E9490
:103C2000FA152091070230910802821B930B883805
:103C3000934110F00E94370E86E0FE013D96DE01B2
:103C4000179601900D928A95E1F7CE0107960E9492
:103C50001A2A882389F016E08091F8019091C70113
:103C6000891349C067960FB6F894DEBF0FBECDBF6B
:103C7000DF91CF911F91089586E0FE013796DE0116
:103C8000119601900D928A95E1F78A859B85892B83
:103C900011F38F81988589238F3FE9F22091C70125
:103CA00030E0C9010196877099274091F8014817C3
:103CB000190671F40E944D181092C7011092F80174
:103CC00086E0E1ECF1E0DF011D928A95E9F7C3CFD0
:103CD00096E0929FD001939FB00D1124A853BE4F40
:103CE000FE01319601900D929A95E1F78093C701FC
:103CF0000E94630EB0CF819FC001112488539E4F54
:103D00000E941A2A882309F4ADCF8091F80190E02F
:103D10000196877099278093F8019ECF82E00E94D8
:103D200005187DCF0F931F93CF93DF9300D000D062
:103D30000F92CDB7DEB78C019093E6028093E50237
:103D4000011580E2180720F5802F0E949C1BC801F6
:103D50000E94F50E9801205E31092830310510F0DF
:103D6000012B59F40F900F900F900F900F90DF914F
:103D7000CF911F910F910C948B1B0F900F900F9070
:103D80000F900F90DF91CF911F910F910C94761BA4
:103D90008EEF89838A831B820E94FA158160782FB7
:103DA0009D838C8349815A816B818D810F900F9007
:103DB0000F900F900F90DF91CF911F910F910C9466
:103DC000DE1DCF93DF9300D000D00F92CDB7DEB7CA
:103DD0009093E6028093E502811520E2920748F471
:103DE0000F900F900F900F900F90DF91CF910C9448
:103DF000B11D8EEF89838A8381E08B830E94FA153F
:103E00008160782F9D838C8349815A816B818D815C
:103E10000F900F900F900F900F90DF91CF910C9417
:103E2000DE1DAF92BF92CF92DF92EF92FF920F937F
:103E30001F93CF93DF93B82EA62EC09033038091AB
:103E40005902C82AC7E0D0E0D12CF12CE12CD701CF
:103E5000C6010C2E04C0B695A795979587950A9430
:103E6000D2F780FF20C04A2D6B2D8C2F0E94891223
:103E70008C0181309105B9F00E94E11E8FE39CE92D
:103E80000197F1F700C00000C8010E94921E81E076
:103E9000DF91CF911F910F91FF90EF90DF90CF9026
:103EA000BF90AF900895219790F64A2D6B2D80E03A
:103EB0000E948912EC010E94E11E8FE39CE90197A8
:103EC000F1F700C00000CE01E0CF2F923F924F9259
:103ED0005F926F927F928F929F92AF92BF92CF929A
:103EE000DF92EF92FF920F931F93CF93DF93CDB7A3
:103EF000DEB72A970FB6F894DEBF0FBECDBF3C01E8
:103F0000DC0113968D919C911497892B41F08C9133
:103F100011969C9189238F3F11F00C9448292A9681
:103F20000FB6F894DEBF0FBECDBFDF91CF911F91CA
:103F30000F91FF90EF90DF90CF90BF90AF909F9048
:103F40008F907F906F905F904F903F902F9008954B
:103F50000E940413182F682F89819A810E949B0E5A
:103F600069817A81812F0E94E8121C018150954558
:103F700021018F3F910510F4B5E55B26F301928096
:103F8000992009F4D5C2FFEF4F16510419F110F131
:103F90002AE242162DE5520621F01092B4012101C9
:103FA00062C08091B40191E089278093B40180912F
:103FB000FC01877009F4B3CFD30112968C9188234A
:103FC00009F4ADCF8091120282FDA9CF82E00E9458
:103FD0000518A5CF8091B401882309F436C1109249
:103FE000B40130EC4316510408F087C040E8441691
:103FF000510408F0F4C050E44516510408F0B9C06B
:1040000021E030E040E050E060E070E080E090E0EF
:10401000042D0E94C335E09194012E2BE09195016F
:104020003E2BE09196014E2BE09197015E2BE091A3
:1040300098016E2BE09199017E2BE0919A018E2BD5
:10404000E0919B019E2B2093940130939501409326
:104050009601509397016093980170939901809312
:104060009A0190939B01C20182519F45409710F0A5
:104070000C941F298FEF93E00E941236BEEE4B0E78
:1040800007E311E0811193CF4110D6C219821A8241
:104090001B821C82BB24BA947801FFEFEF1AFF0A3F
:1040A000C8010E94123689831A82882309F47FCFBF
:1040B000813009F025C3680122E0C20ED11CC7017E
:1040C0000E941236E82E8A83882309F470CFC60135
:1040D0000E941236F82E8FEF8E0D833008F0BAC290
:1040E000680133E0C30ED11CFB82FF2021F0CE011A
:1040F00001960E94091D8601CFCF8FEF481651040B
:1041000011F008F07DCF21E030E040E050E060E0C9
:1041100070E080E090E08201005C11090E94C335EC
:10412000E091AC012E2BE091AD013E2BE091AE0170
:104130004E2BE091AF015E2BE091B0016E2BE09130
:10414000B1017E2BE091B2018E2BE091B3019E2B49
:104150002093AC013093AD014093AE015093AF0179
:104160006093B0017093B1018093B2019093B30159
:104170007ACF21E030E040E050E060E070E080E0A5
:1041800090E08201005411090E94C335E0919C0126
:104190002E2BE0919D013E2BE0919E014E2BE09154
:1041A0009F015E2BE091A0016E2BE091A1017E2B7F
:1041B000E091A2018E2BE091A3019E2B20939C0104
:1041C00030939D0140939E0150939F016093A00105
:1041D0007093A1018093A2019093A30144CF21E0A9
:1041E00030E040E050E060E070E080E090E082018C
:1041F000005811090E94C335E091A4012E2BE091D3
:10420000A5013E2BE091A6014E2BE091A7015E2B6C
:10421000E091A8016E2BE091A9017E2BE091AA010B
:104220008E2BE091AB019E2B2093A4013093A5012E
:104230004093A6015093A7016093A8017093A90130
:104240008093AA019093AB010ECF90E449165104DC
:1042500008F070C0E0919401F0919501A091960151
:10426000B0919701209198012E838090990130910F
:104270009A01388740919B014A8721E030E040E075
:1042800050E060E070E080E090E0042D0E94C335D3
:10429000A22EAE22B32EBF22C42ECA22D52EDB22DE
:1042A000EE80E622F72EF820088508231A851923C8
:1042B0000E94DC3509F073CE40EC4416510408F03E
:1042C0009EC050E84516510408F001C180E448162C
:1042D000510408F0CBC021E030E040E050E060E065
:1042E00070E080E090E0042D0E94C3352095309569
:1042F0004095509560957095809590952E233F231D
:104300004A235B23AE816A237821B8858B23EA8513
:104310009E232093940130939501409396015093EE
:104320009701609398017093990180939A019093FB
:104330009B013DCE50E845165104F8F4E0919C01F4
:10434000F0919D01A0919E01B0919F018091A001EB
:104350008E838090A1019091A20198872091A30162
:104360002A8721E030E040E050E060E070E080E04B
:1043700090E082010054110989CF30EC43165104BA
:10438000F8F4E091A401F091A501A091A601B091EB
:10439000A7014091A8014E838090A9015091AA01E4
:1043A00058878091AB018A8721E030E040E050E0FF
:1043B00060E070E080E090E082010058110966CF73
:1043C000E091AC01F091AD01A091AE01B091AF01CF
:1043D0009091B0019E838090B1012091B201288715
:1043E0003091B3013A8721E030E040E050E060E0F6
:1043F00070E080E090E08201005C110947CF9FEF00
:104400004916510411F008F066CF8201005C1109D1
:1044100021E030E040E050E060E070E080E090E0DB
:104420000E94C335209530954095509560957095C4
:10443000809590952E233F234A235B23BE816B23D7
:104440007821E8858E23FA859F232093AC01309351
:10445000AD014093AE015093AF016093B0017093F2
:10446000B1018093B2019093B301A1CD82010054B8
:10447000110921E030E040E050E060E070E080E0D1
:1044800090E00E94C33520953095409550956095F9
:104490007095809590952E233F234A235B23FE81C0
:1044A0006F237821A8858A23BA859B2320939C01BA
:1044B00030939D0140939E0150939F016093A00112
:1044C0007093A1018093A2019093A30170CD82010A
:1044D0000058110921E030E040E050E060E070E079
:1044E00080E090E00E94C33520953095409550952E
:1044F00060957095809590952E233F234A235B23EA
:10450000EE816E237821F8858F23AA859A23209344
:10451000A4013093A5014093A6015093A701609395
:10452000A8017093A9018093AA019093AB013FCD9C
:104530002FEF4216510409F060F530E443165104A0
:10454000B8F5A0909401B0909501C0909601D090DC
:104550009701E0909801F0909901E0919A011091F3
:104560009B0121E030E040E050E060E070E080E05E
:1045700090E0042D0E94C335A222B322C422D5228A
:10458000E622F722082F0E2319230E94DC3509F4B6
:104590000ECDF0E12F16FFE53F0609F4BDC0210165
:1045A00021E122162FE5320609F0C3C082E0B5C032
:1045B00040E844165104A0F4A0909C01B0909D01E5
:1045C000C0909E01D0909F01E090A001F090A101C9
:1045D000E091A2011091A30150E4451A5108C1CF06
:1045E00080EC48165104A0F4A090A401B090A5015D
:1045F000C090A601D090A701E090A801F090A90179
:10460000E091AA011091AB0190E8491A5108A9CF95
:10461000A090AC01B090AD01C090AE01D090AF01C0
:10462000E090B001F090B101E091B2011091B301BE
:10463000A0EC4A1A510895CF0115E4E01E0709F4D1
:10464000B6CCC8010E941236811101C04A940F5F96
:104650001F4F1ACD8BEF8E0D833050F5C801039696
:10466000FB826C01FF2009F446CD680144E0C40ED2
:10467000D11C0E9412368C83882309F43CCD0B8117
:104680001C8101305FEF150710F0102F002786E026
:10469000E81651F097E0E91619F0C8010E94E11EF2
:1046A000C8010E94921E27CDC8010E94E11E23CDA1
:1046B000A4E0EA1220CD6801B4E0CB0ED11CC80101
:1046C00003960E941236FF2009F471CC882309F466
:1046D0006ECC8150990BB89E9001B99E300D11247B
:1046E000EF2DE150FF0BCF01820F931F019708F4CC
:1046F00002CDAFE9BFE01197F1F700C00000F6CF9F
:10470000CE0101960E94091D6701F5CC81E00E944F
:104710003E180E94EE174BCC81E00E94F917F9CFAA
:10472000992009F443CF82E0F2CF81E08093000129
:104730003ECC80910001882309F4E0C4620130EE90
:10474000C31AD108309009028091F901382A80916A
:104750000602382A48E0C416D10408F089C0920144
:104760002770332781E090E001C0880F2A95EAF78F
:10477000992009F47AC0382AD3018D919C910E9426
:104780006D0E21E030E0590102C0AA0CBB1C8A95D5
:10479000E2F7E0910603F0910703FF83EE83209197
:1047A000B5013091B60139872887212CE22DF0E040
:1047B000EE0FFF1FE55AFD4F008111810115110514
:1047C00009F4D0C4311005C0D80112968C91811122
:1047D0008BC0F801838190E08A219B21892B09F409
:1047E00083C08085982F977009F487E0F8E0CF1692
:1047F000D10408F057C0992009F450C08695817003
:10480000882309F471C0D801ED90FC90E414F504FC
:1048100019F4992009F468C0EE81FF810E171F0773
:1048200009F462C0D8011D96ED91FC91309721F0FA
:104830008081882309F458C0632DC8010E94080BA9
:10484000882309F451C0E414F50409F044C5E114C7
:10485000F10409F445C5911045C5E885F985EE16C2
:10486000FF0609F041C0912C3DC58095382284CFC8
:10487000992009F460C45092B6014092B5010E949B
:10488000590A6093FD027093FE028093FF02909399
:10489000000310920503109204036ECF82FB882759
:1048A00080F9AECF992001F18170AACF0E949C1BA4
:1048B00038C50497813A910558F46E2D8CE891E043
:1048C0000E94650A992009F419C40E9476176FCBDB
:1048D0000E9476178FE39CE90197F1F700C0000072
:1048E0008E2D0E94321CEECF239460CFFC012081DC
:1048F00031812415350509F0FAC39110FAC31092DD
:10490000030380E00E94CB1BF9C345EF44164CE53E
:104910005406D1F0A8F027E245EE66EE86EF481681
:104920008CE5580609F031C4C3010E94A51C3FCB99
:1049300027E245EE65EEF8CF26E241EE60EEF4CFD9
:1049400027E245EE64EEF0CF26E241EE62EEECCFD8
:1049500028E241E0EFCFF1E64F16FDE55F0609F4EE
:104960002EC425EA42162DE5520609F428C4E6E1D4
:104970004E16ECE55E0609F013C1809106028A7AB4
:1049800091E009F490E09093B70169E2811165E349
:104990008CE891E00E94650A98CF809111028062B4
:1049A00027E042162CE5520609F4ADC080911102B1
:1049B000806138E043163CE5530608F4A4C08091BA
:1049C00011028064A0C0809111028B7F4DE04416DB
:1049D0004CE5540609F497C098F48BE048168CE532
:1049E000580609F4A5C0809111028C609CE049161C
:1049F0009CE5590608F487C0809111028D7F83C021
:104A0000809111028F7EAFE04A16ACE55A0609F498
:104A10007AC080911102877FB0E14B16BCE55B063E
:104A200008F471C0809111028F7D6DC0EDEF4E16BC
:104A3000ECE55E0609F484C078F525E142162CE524
:104A4000520609F48BC0A0F480911102837F43E1E8
:104A500044164CE5540609F456C008F479C00E9487
:104A60004D1890911102892F97FB87F980584BC000
:104A70008BEF48168CE5580609F450C008F05CC06E
:104A8000809112028160AAEF4A16ACE55A0609F03D
:104A9000C5C380931202C2C3B1E04B16BDE55B06ED
:104AA00009F468C0C8F4809112028C7FFFEF4F16A2
:104AB000FCE55F0671F380911202836041142DE5DD
:104AC000520638F380911202982F909591708E7F44
:104AD000892B90FB81F9DDCF31E643163DE5530686
:104AE00009F44EC045EA44164DE5540609F44FC09A
:104AF00052E045165DE5550609F090C360E03BC005
:104B00008091110282608093110288C3809111020A
:104B10008460F9CF809111028860F5CF80911202F4
:104B20008260B7CF0E944D18809111028068EBCF50
:104B3000809111028E7FE7CF809112028E7FA9CFE4
:104B4000809112028D7FA5CF809111028F7BDBCFE8
:104B50000E944D18809111028F77D5CF809111025C
:104B600082FB992790F921E0922790FB82F990FB34
:104B700083F9C9CF61E08EE090E00E9420364EC3F9
:104B800090911102892F8F7E94FF8061BCCF90910C
:104B90001102892F8E7F90FF8160B5CF85E398C386
:104BA000882399F08AE548168DE5580609F47DC0FA
:104BB00008F056C04114ACE55A0609F466C0BEEDD3
:104BC0004B16BCE55B0609F46DC0F30182810081E0
:104BD0001181882309F46DC0C8010E940413F82EC6
:104BE000682FC8010E949B0EB8018F2D0E94E81209
:104BF0000E94AF0C8C01A82ED3011296EC90129754
:104C00001596DC90D2943FE0D3228091FC0187700E
:104C1000C1F0CE2CEE20B1F0812F807F803421F0C6
:104C200080E2800F883068F08091120282FD09C016
:104C300082E00E9405188091FC018770CC24C39407
:104C40008111C12CB12EB2942FE0B222BBE0BB1572
:104C500008F49BC0EB2DF0E0E859F94C0C94B63504
:104C6000EBE54E16EDE55E0611F1FCE54F16FDE5B0
:104C70005F0609F0AACF8091120282FB882780F993
:104C800091E089270E942118A0CF0E944D182FEF94
:104C900034E34CE0215030404040E1F700C00000D8
:104CA0000E94480A0E942E1482C981E0EBCF80E066
:104CB000E9CFC8010E946D0EF82E96CFE12FEF705C
:104CC000FE2E107F19F0F29490EFF922EE20B9F049
:104CD000FF2069F080E2800F883010F0A11009C039
:104CE00080910602F82AF09206020E947617802F21
:104CF0004AC080910502F82AF0920502F6CF802F73
:104D00000E949C1BFF2009F440C0005E083010F098
:104D1000A11004C08F2D0E94420E06C0F094809115
:104D20000502F822F09205020E9476172EC0F12F9C
:104D3000FF70FF2E107F103219F0F29480EFF822EE
:104D4000AA2089F021E0A21609F486C0EE2009F419
:104D50008FC0DD2009F464C0F301858180FFC7CFD7
:104D60008F7085835DC08091120282FF34C0EE2077
:104D700061F1FF2039F080910602F82AF0920602D4
:104D80000E94761780E00E94321CAB2DA850BB0B0E
:104D9000149710F40E94AB0ACC2009F4C0C880918B
:104DA000FC0180FDBCC8F30112828595859585952F
:104DB0000E943E18C3010E94651F8091FC018595E9
:104DC000859585950E94F917AAC880E00E949C1BD2
:104DD000FF20D9F29FCFEE2039F1D11004C080918D
:104DE00009028F291EC031E0D31210C082FDCDCF41
:104DF00080910902F82AF81641F20E94FA15909360
:104E0000080280930702F0920902BFCF45E0D41256
:104E1000E6CF0E94370E8091F901F812F092F90165
:104E20008F2D0E94921BB1CFD11006C00E94370E69
:104E30008F2D0E948B1BA9CF51E0D51208C0809105
:104E400006028F2109F4A1CF0E94500EEFCF85E01A
:104E5000D81609F49ACFEACFEE2029F095E09D15F7
:104E600008F493CFDDCFA4E0AD1508F48ECFE0CFEA
:104E7000DD20F1F2F9E3AF1209C02FEF37EE43E086
:104E8000215030404040E1F700C00000802F0E94D8
:104E90009C1B7BCF812F86958695837061F0813036
:104EA00009F073CFC8019370E11002C090E080E078
:104EB0000E947F0A6ACFC8019370E11002C090E09F
:104EC00080E00E94950A61CF802FEE2029F00E9499
:104ED000ED0B0E94061659CF0E94280BFACF812FA6
:104EE000837089F5E11051CF402F42954695477068
:104EF000440F440F802F8F70042E01C0880F0A9436
:104F0000EAF7202F207104FF07C02FE030E001C036
:104F1000220F4A95EAF720951695169513701230D0
:104F200069F050F430915902113029F0822B83231B
:104F30000E9449182ACF832B822BFACF282B8091ED
:104F400059028227F5CF8695EE2011F0812F8170CE
:104F5000882309F41ACF402F429546954770440F95
:104F6000440F802F8F70042E01C0880F0A94EAF737
:104F7000202F207104FF07C02FE030E001C0220F76
:104F80004A95EAF72095169516951370123069F038
:104F900050F430913303113029F0822B83230E9487
:104FA000EA17F3CE832B822BFACF282B8091330381
:104FB0008227F5CF1F70EE2029F0812F0E943E1826
:104FC000802F2FCF802F0E948B1B812F0E94F917DB
:104FD000DCCE802F52EFA516A9F15A1570F090EF94
:104FE000A916D1F0A1EFAA1691F0EE2009F46FC036
:104FF000D1107DCE812F8F7129C0B3EFAB1649F14F
:10500000E4EFAE12F2CF8091120282FF2DC0812F09
:105010008F71EE20D9F21AC0EE2079F0F4E0FD1580
:1050200008F4B3CE1F7181E090E001C0880F1A959B
:10503000EAF7909133038927B2CF25E02D1508F4C4
:10504000A4CEF0CF812F8F71E110C0CF0E943E1807
:105050009CCE80E0EE2009F4A2CF1F7181E001C058
:10506000880F1A95EAF79BCF8091F901EE20D9F0CD
:105070000E94420E8091FC018770843041F40E94AE
:10508000490E812F8F710E94F917C12C7ECE34E01A
:105090003D15D8F31F71812F0E943E1863E0812FC8
:1050A0000E94C81DF2CF90910602982B90930602A1
:1050B00044E04D1540F40E94490E0E94500E64E0F9
:1050C000812F8F71EDCF81E00E940518DECFDD20AA
:1050D00059F0893309F0DACE5FEF87EE93E0515053
:1050E00080409040E1F7D0CE812F8F716FCF992013
:1050F00029F0DC0118968C9185FF03CCB3EF4B1699
:10510000BCE55B0609F418CC08F0FFCBF8ED4F16B0
:10511000FCE55F0609F40CCC29ED42162CE552069D
:1051200009F416CC37ED43163CE5530671F526E23B
:1051300041EE61EEF9CB8091B5019091B6018415F5
:10514000950581F41092B6011092B5011092FD02FE
:105150001092FE021092FF021092000310920503BB
:10516000109204038091060390910703009731F297
:10517000A8E0CA16D10408F0B9CB632D0E94080B31
:105180008111BCCF81E00E94CB1BD30112968C9180
:10519000882309F492C010923203B3E04B16BDE5A8
:1051A0005B0608F0D8CBEAEF4E16ECE55E0638F465
:1051B000920122503C452431310508F0D8CB0E94A1
:1051C0007813909312028093110231E143163CE56B
:1051D000530609F4B9CC08F029CC59E045165CE532
:1051E000550609F49FCC08F0EECB95E049169CE5F6
:1051F000590609F48FCC08F0D0CBB3E04B16BCE5D0
:105200005B0609F47DCC08F081CC809111028160AD
:10521000F2E04F16FCE55F0609F475CC60911102CF
:105220001091120284E090E00E942036612F82E209
:1052300090E00E9420360E944D180C94D71FB0E1D8
:105240004B16BFE55B0609F461CAE1E14E16EFE5D6
:105250005E0609F465CAEFE54E16EDE55E0609F453
:1052600064CAF0E64F16FDE55F0659F02EE54216DA
:105270002DE5520609F05DCA80910001882309F4EA
:1052800054CA1092000180E00E94CB1B0C94D71FDF
:1052900085E0F301DE01119601900D928A95E1F708
:1052A000D30112962C9189819A8121110C94A81F07
:1052B0000E946D0E182F0C94B01FB6E14B16BCE582
:1052C0005B0609F082CC8091B701811167CC89E23D
:1052D0000E94560EFACAE114F10409F0BECA912CDC
:1052E000F12CE12C80E00E94CB1B1093070300936C
:1052F000060381E080930303D80115968C91809377
:10530000010391100EC0EF2861F0D8018D919C919E
:105310009C0124503109213A310508F0C7CA0E9486
:10532000560EF801E680F780C7019A9581159F41D6
:1053300010F420EEF222BB24B394C7010197853A02
:105340009D4508F0B12CD8011996ED91FC911A9762
:10535000309731F01B966D917C9181E00995B822D0
:10536000BB2079F0F801868197810E94F50E809329
:105370000203C701F8E0CF16D10408F09ACA0E94D0
:10538000B70A0E9476179ECA1F93CF93DF9380912E
:10539000C601807FA9F48091C301882389F08091A0
:1053A000F801D091C7016091C1017091C201A09133
:1053B000C401B091C501C62FC72316E0D81304C09D
:1053C000DF91CF911F91089590E0109711F0CF3F9A
:1053D00019F401968770F2CF189F9001199F300D34
:1053E0001124F901E853FE4F41814713F2CF408168
:1053F0004613EFCF42814111ECCF438154814A1BC8
:105400005B0B483C510528F78091C6018F70806185
:105410008093C601F901E353FE4F80818F70806154
:10542000808381EC91E00E94651FDF91CF911F91F5
:105430000C94630EAF92BF92CF92DF92EF92FF92E5
:105440000F931F93CF93DF93CDB7DEB761970FB65E
:10545000F894DEBF0FBECDBF8C0185E0F801DE0100
:105460001D9601900D928A95E1F7F801E28081EC9A
:10547000A82E81E0B82E6091C4017091C50161151C
:10548000710509F432C19091C1014091C201892F87
:1054900084238F3F09F429C120813181C380D480C6
:1054A000F090C301F601E61BF70BFF2009F4E8C0FA
:1054B0008091C601582F507FE83CF10508F0ABC041
:1054C000511177C0FE2C431321C092131FC0E1106D
:1054D0001DC08F7080618093C601C5010E94651F49
:1054E0008091C601F80185838F2D61960FB6F894DF
:1054F000DEBF0FBECDBFDF91CF911F910F91FF9007
:10550000EF90DF90CF90BF90AF900895CD2829F015
:10551000822F83238F3F09F003C180E0F82FF170C1
:10552000DF2E80FF3CC08091F8014091C70156E01A
:10553000841315C02D873E878D859E850E94331369
:10554000292F22952F702230F0F0243018F59F700B
:10555000F1F0F8019581907FD1F4D12C1EC090E03C
:10556000589FF001599FF00D1124E853FE4F6181BF
:10557000361306C06081261303C06281E6120FC095
:1055800001968770D5CF9F7011F0882331F3805E2C
:10559000883018F3C8010E94651FFD2CA5CFEE20AE
:1055A00009F4A2CF8091C60181608093C601F12CDD
:1055B0009BCF431306C0921304C0F801EE2009F4F8
:1055C00079C0C8010E943F13882309F1EE20F9F049
:1055D0008091C601803270F02091C1013091C201EA
:1055E00038872F831986DB86CA868C87CE0107967B
:1055F0000E94651F86E0F801A1ECB1E001900D92D8
:105600008A95E1F70E94C429FF24F3946DCFC80165
:105610000E94651FF9CF51110AC081EC91E00E94F0
:10562000651F86E0F50111928A95E9F7C0CF431313
:105630000FC092130DC0E1100BC0F8018583C801A3
:105640000E94651F86E0F50111928A95E9F74CCF1B
:10565000C8010E943F138823D1F2EE20C1F280914D
:10566000C601803238F22091C1013091C2013A83E3
:1056700029831B82DD82CC828E83CE010196B8CF36
:10568000E83CF105F8F6FE2CEE2009F243131FC0AA
:1056900092131DC08091C60180FD10C0982F907F8D
:1056A00069F0F8018583903F31F0982F907F905FEB
:1056B0008F70892B8583C8010E94651F86E0F801E1
:1056C000A1ECB1E001900D928A95E1F70DCFC801F0
:1056D0000E943F1381118ECF8091C601816080931B
:1056E000C601C8010E94651FFFCEEE2009F48FCFCE
:1056F000C8010E943F13F82E882309F488CF86E062
:10570000F801A1ECB1E001900D928A95E1F780914A
:10571000C1019091C2010E9433130E94C429E4CEBA
:1057200081E08E25FBCE1F921FB61F9211248F930E
:105730009F93AF93BF9380910E03811113C080910B
:105740000F0390911003A0911103B09112034196A1
:10575000A11DB11D80930F0390931003A09311031B
:10576000B0931203BF91AF919F918F911F901FBE75
:105770001F901895CDB7DEB7E9970FB6F894DEBF46
:105780000FBECDBF84B7877F84BF0FB6F894A895AE
:1057900080916000886180936000109260000FBE6D
:1057A00080E890E00FB6F8948093610090936100D8
:1057B0000FBE85B7806885BF85B7806885BF81EAE1
:1057C0009FE090938B0180938A010E9486130E9430
:1057D000BA080E9485098091E20084608093E2000B
:1057E0007894809126038823A1F01091E9001F701E
:1057F0009091EC00892F817090FD80E8182B109219
:10580000E9008091E80083FD0E9458181F701093F2
:10581000E90082E084BD93E095BD9AEF97BD809347
:105820006E000E945F13811102C00E947A1284EF01
:105830000E94550C85EF0E94550C86EF0E94550C76
:1058400087EF0E94550C04E511E0F9E5EF2EF1E039
:10585000FF2ED8018D918D018F3F11F00E94550CC4
:10586000E016F106B1F784E0E7E4F2E0DF01282F6B
:105870001D922A95E9F7EDE0F2E0DF011D928A958D
:10588000E9F790E080E00E941A36893E9E4F21F4AD
:105890000E945F13811102C00E942E1482E090E0EA
:1058A0000E94123680934E020E9478139093120247
:1058B000809311020E94AF16EFEFF6E721E0E1506E
:1058C000F0402040E1F700C000000E94AF16809138
:1058D000470280FF08C06FEF7FEF90E080E00E94FA
:1058E0003E360E94480A83E090E00E9412360E94F1
:1058F000491883E08093420280E2809334030E943F
:105900007B346DE070E085EE92E00E94260F892BDB
:1059100009F4AAC089EC92E00E94C3076DE671E029
:1059200049E651E0ABE6B1E021E030E08D91E82FAF
:10593000E295EF70F0E0F1A08F70890101C0000FD7
:105940008A95EAF7902F90959F2191A382A1802BB1
:1059500082A3FA018191AF01E82FE295EF70F0E0A8
:10596000F1A08F70890101C0000F8A95EAF7902F8E
:1059700090959F2191A382A1802B82A36A177B0718
:10598000A9F68FE891E00197F1F700C0000083B11C
:10599000829581701D99B5C090E0892B80931B0280
:1059A0008CB186FB882780F926B130E0220F232FA7
:1059B000221F330B90E0232B09F092E0892B809378
:1059C0001C0281E091E090930B0380930A0387E42B
:1059D00092E0A4E0A80FAFAB80912603853089F454
:1059E00082EF92E00E94C30770E4F72E00E112E11B
:1059F00080912603853009F486C00E944D180E94CC
:105A0000AB0A0E94AF16582E81110E94590A43E139
:105A1000642E42E0742E57E4C52E52E0D52E10E0DD
:105A200000E068EFA62E62E0B62E202ED6014D9043
:105A30006D01F30131903F0134109EC00F5F1F4F85
:105A40000430110591F78FEF88AB89AB1AAA0E9439
:105A5000FA158160782F9CAB8BAB48A959A96AA92C
:105A60008CA90E94DE1DADC08091420263E070E00F
:105A700081FD09C086EC92E00E94260F892B61F01F
:105A800080EA92E049CF8DE992E00E94260F892BAF
:105A900019F085E892E040CF6DE070E088E792E091
:105AA0000E94260F892B19F081E692E035CF0E94E3
:105AB000590A605A75418F4F9F4F6093EF02709360
:105AC000F0028093F1029093F202E7E3F3E080E0CA
:105AD00092E0DF019C011D9221503040E1F7F093EC
