:100000000C94E5080C9402090C9402090C94020962
:100010000C9402090C9402090C9402090C94020934
:100020000C9402090C9402090C94DC150C94761CB7
:100030000C94D72C0C9402090C9402090C9402091C
:100040000C9402090C9402090C9402090C94020904
:100050000C9402090C940B170C9402090C940209DD
:100060000C9402090C9402090C9402090C940209E4
:100070000C9402090C9402090C9402090C940209D4
:100080000C9402090C9402090C9402090C940209C4
:100090000C9402090C9402090C9402090C940209B4
:1000A0000C9402090C9402090C9402090631FF0910
:1000B00074A1010975150026FF00952075088102BD
:1000C0000976150026FF00952075089102C00501EC
:1000D0000902A10185020901A100050919012905EB
:1000E00015002501950575018102950175038101B2
:1000F0000501093009311581257F950275088106B2
:1001000009381581257F950175088106050C0A3887
:10011000021581257F950175088106C0C00501097A
:1001200080A101850319012AB700150126B70095A2
:100130000175108100C0050C0901A1018504190198
:100140002AA002150126A002950175108100C006A3
:1001500060FF0961A1010962150026FF0095207565
:100160000881020963150026FF0095207508910299
:10017000C005010906A101050719E029E7150025B9
:10018000019508750181029501750881010507191E
:100190000029FF150026FF00950675088100050857
:1001A00019012905950575019102950175039101C4
:1001B000C00000000000000000000000000000007F
:1001C000000000000000000000000000000000002F
:1001D00000000000007E0F00D4FFFFFFC7000000FA
:1001E0007800000000000000002A2B28000000001A
:1001F00000000000000000000000000029000000D6
:10020000002C1E3420212224342627252E362D377B
:1002100038271E1F202122232425263333362E374C
:10022000381F0405060708090A0B0C0D0E0F1011E4
:1002300012131415161718191A1B1C1D2F313023F1
:100240002D350405060708090A0B0C0D0E0F1011B9
:1002500012131415161718191A1B1C1D2F313035BF
:100260004C646973706C61795F736574757032206A
:100270006661696C65640A0000DA0281FFD9F1DB0E
:1002800020A4A62EAF646973706C61795F666C6997
:1002900070706564206661696C65640A0000A0C0C6
:1002A0006F6C65645F696E697420636D64206E6F46
:1002B000726D616C20726F746174696F6E2066611B
:1002C000696C65640A0000A1C86F6C65645F696E43
:1002D000697420636D6420736574203120666169E0
:1002E0006C65640A0000AED580A81FD300408D1451
:1002F00020005B735D000A0025303862003A200060
:1003000025303258000A722F6320303132333435B1
:1003100036370A0000000000000000000000000066
:10032000000000000000000000000000000000804D
:10033000808080404040400020202000101010109D
:100340001000080808080808080004040402020253
:1003500001010101020204040C0808080808000059
:10036000001010101010100020202020202020004D
:1003700000404040404000808080808000000000BD
:1003800000000000008080808080808080800000ED
:1003900000000000000000000000000000C0E0209D
:1003A0001010080808040404020202010101000000
:1003B00000000000008080808080808080808080BD
:1003C0008C8C0C0C04000000000808101010101099
:1003D00010101000000000000000000000000000ED
:1003E0000000004040406060400080C0E0200010FD
:1003F000101010101010101010202020404101018A
:1004000001010101000000406070B88F0703000087
:1004100000000000000001050505050000010101C4
:10042000010000000C0C08000000000001010101A7
:1004300001010000000000000000000000000000BA
:1004400000000000000001010101010101010100A3
:100450000000000202020202020202020200000088
:10046000040404040404040404040707070408083B
:1004700008080808080808080000000010101010FC
:100480001010101010100000000020212123262C35
:100490002C383020000000000000000000000000A8
:1004A000000000000000000000000000000000004C
:1004B000000000000000000000000000000000003C
:1004C000000000000000000000000000000000002C
:1004D000000000000000000000000000000000001C
:1004E000000000000000000000000000000000000C
:1004F00000000000000000000000000000000000FC
:1005000000000000000000000000000000000000EB
:1005100000000000000000000000000000000000DB
:1005200080808080000000000000008080800080CB
:10053000808080404040400020202000101010109B
:100540001000080808080808080004040402020251
:1005500001010101020204040C0808080808000057
:10056000001010101010100020202020202020004B
:10057000004040404040008080808000000000003B
:1005800000000000008080808080808080800000EB
:1005900000000000000000000000000000001E3FFE
:1005A00031202020202020000000404040404141D8
:1005B0004142404000000000808080808080808038
:1005C0008C8C0C0C04000000000808101010101097
:1005D00010101000000000000000000000000000EB
:1005E000000000404040606040000000000000004B
:1005F00000000000000000000000000000010101F8
:1006000001010101000000406070B88F0703000085
:1006100000000000000000000000000000000000DA
:1006200000000000000000000000000000000000CA
:1006300000000000000000000000000000000000BA
:1006400000000000000001010101010101010100A1
:100650000000000202020202020242424240400046
:100660000484841C1C2426222220202020A0A0A058
:10067000202020202000000010101010101010105A
:100680001010101010100000000020212123262C33
:100690002C383000000000000000000000000000C6
:1006A000000000000000000000000000000000004A
:1006B000000000000000000000000000000000003A
:1006C000000000000000000000000000000000002A
:1006D000000000000000000000000000000000001A
:1006E0000000000000000000000000000000000109
:1006F00001010000000000000000000000000000F8
:1007000000000000000000000000000000000000E9
:1007100000000000000000000000000000000000D9
:1007200000000000000000000000000000000000C9
:10073000000000000000000000000080808080C0F9
:10074000C0C0C0E0E0E0E0E0F0F0F0F0F8F8F8F869
:10075000FCFCFCFCFCFCFCFCF8F8F8F8F8F0F0F011
:10076000F0E0E0E0E0C0C0C0C08080808080000099
:100770000000000000000000000000000000000079
:100780000000000000000000000000000000000069
:100790000000000000000000000000000000000059
:1007A00000000000000000101010181818181C1C81
:1007B0001C1C1E1E1E1E1F1F1F1F1F1F1F1F1F1F53
:1007C0000F0F0F0F07070707030303038381C1C13F
:1007D0006170303090B0F0E1E1C1C18103030303E7
:1007E000070707070F0F0F0F0F1F1F1F1F1F1F1FC9
:1007F0001F1F1E1E1E1E1C1C1C1C1C181818181047
:1008000010000000000000000000000000000000D8
:1008100000000000000000000000000000000000D8
:1008200000000000000000000000000000000000C8
:100830000000000000000000000000000038787890
:100840007878787878787878787A7B7B797978781E
:100850007878787878787878787879797B7B7A780E
:100860007878787878787878787878000000000060
:100870000000000000000000000000000000000078
:100880000000000000000000000000000000000068
:100890000000000000000000000000000000000058
:1008A0000000000000000000000000000000000048
:1008B0000000000000000000000000000000000038
:1008C0000000000000000000000000000000000028
:1008D0000000000000000000000000000000000018
:1008E0000000000000000000000000000000000008
:1008F00000000000000000000000000000000000F8
:1009000000000000000000000000000000000000E7
:100910000000000034003300320031004C415945E2
:1009200052006F6C65645F72656E64657239302069
:1009300064617461206661696C65640A006F6C654E
:10094000645F72656E6465722064617461206661C3
:10095000696C65640A006F6C65645F72656E6465DE
:1009600072206F666673657420636F6D6D616E646F
:10097000206661696C65640A00FD377A585A000088
:1009800004E6D6B4460200210116000000742FE5EB
:10099000A3E0019100D05D003D8889C65436C3179D
:1009A0004FE4DD62AF402AC4F86A2942BE31BD8BF4
:1009B000DF2D72B5D4C78D0A962274984A643EE240
:1009C000D4CE26E787611C841836157B21A36720C7
:1009D00012FBB4416866501DBED52E8995525FF456
:1009E000806C25AA3AD817EF7177DAB7E2C5A15320
:1009F0009978FDAFD18FFDF0174F5E57D1648AF41F
:100A000006A923522450D05D941B448515FF205025
:100A10000738A6A082987F9723899525AB5C273459
:100A20002208442446763DDB89507B8E9C45F9AAFA
:100A3000F6522D942DDE16CE3834268A1A959B2632
:100A400048B2358477B30204B3C560C2CAABF7F0CD
:100A5000921133CFFD2FA0A0C9BE9E90B825411E94
:100A600037DDEFDC4F24225F0040F5CBC4AF33937A
:100A7000470001EC0192030000E2B1BC8AB1C467F7
:100A8000FB020000000004595A290A002575002FB6
:100A9000002575005D2800256400200025640020E5
:100AA0000025640020002564007C002530325800B9
:100AB0006D6F7573656B6579205B62746E7C7820F1
:100AC00079207620685D287265702F61636C293A01
:100AD000205B000000005C0100010001000000013B
:100AE00000010001000100000001000100010001FF
:100AF00000010001000100010001000000010001EF
:100B000000010001000000010001000100010000DF
:100B100000010001000100010001000100010001CD
:100B200000010000000100010001000100000001BF
:100B300000010001000100000001000100010001AE
:100B4000000100010001000100010000000100019E
:100B5000000100010000000100010001000100008F
:100B6000000100010001000100010001000100017D
:100B700000010007087F0807003E5B4F5B3E003E18
:100B80006B4F6B3E001C3E7C3E1C00183C7E3C18AC
:100B9000001C577D571C001C5E7F5E1C0000183C2B
:100BA000180000FFE7C3E7FF00001824180000FF4B
:100BB000E7DBE7FF0030483A060E002629792926B0
:100BC00000407F05050700407F05253F005A3CE7B0
:100BD0003C5A007F3E1C1C0800081C1C3E7F001471
:100BE000227F2214005F5F005F5F0006097F017FA4
:100BF00000006689956A0060606060600094A2FFF2
:100C0000A2940008047E04080010207E2010000832
:100C1000082A1C0800081C2A0808001E10101010C2
:100C2000000C1E0C1E0C0030383E383000060E3E04
:100C30000E060000000000000000005F0000000041
:100C40000700070000147F147F1400242A7F2A1253
:100C5000002313086462003649562050000008073C
:100C6000030000001C224100000041221C00002A59
:100C70001C7F1C2A0008083E080800008070300015
:100C80000008080808080000006060000020100844
:100C90000402003E5149453E0000427F4000007280
:100CA00049494946002141494D33001814127F102B
:100CB000002745454539003C4A4949310041211149
:100CC000090700364949493600464949291E0000AE
:100CD000001400000000403400000000081422410D
:100CE00000141414141400004122140800020159C5
:100CF0000906003E415D594E007C1211127C007FB6
:100D000049494936003E41414122007F4141413E2F
:100D1000007F49494941007F09090901003E4141DD
:100D20005173007F0808087F0000417F41000020C8
:100D300040413F01007F08142241007F4040404075
:100D4000007F021C027F007F0408107F003E4141AB
:100D5000413E007F09090906003E4151215E007FA6
:100D6000091929460026494949320003017F010338
:100D7000003F4040403F001F2040201F003F4038C0
:100D8000403F006314081463000304780403006107
:100D900059494D4300007F414141000204081020A1
:100DA00000004141417F0004020102040040404034
:100DB0004040000003070800002054547840007FA2
:100DC0002844443800384444442800384444287FA8
:100DD0000038545454180000087E09020018A4A4D6
:100DE0009C78007F080404780000447D40000020C7
:100DF00040403D00007F102844000000417F40003B
:100E0000007C04780478007C0804047800384444AA
:100E1000443800FC182424180018242418FC007CF2
:100E2000080404080048545454240004043F442493
:100E3000003C4040207C001C2040201C003C4030F6
:100E4000403C004428102844004C9090907C004482
:100E500064544C4400000836410000000077000054
:100E6000000041360800000201020402003C262373
:100E7000263C00000000000000404040F0F8F8FF71
:100E800038FFF8F83FF8F8FF38FFF8F8F040404036
:100E900000000000000080C0C0C0800000C0C08012
:100EA00000000080C0C000C0C0000080C0C00000C2
:100EB000000000C0C0C0C0C000C0C00000000000F2
:100EC0000000000000000000000000000000000022
:100ED0000000000000000000000000000000000012
:100EE0000000000000000000000000000000000002
:100EF0000000C0F0F8FC3E1E06010000007F4141EA
:100F0000417F007F4141417F000080C0E07E5B4F18
:100F10005BFEC00000C000DCD7DEDEDED7DC00C038
:100F200000000000000000000000000000000000C1
:100F3000000000000000000000494949FFFFFFFFDA
:100F4000E0DFBFBF00BFBFDFE0FFFFFFFF49494950
:100F500000000000001F3F6060E0BF1F007F7F07B0
:100F60001E381E077F7F007F7F0E1F3B71600000D1
:100F70000000007F7F0C0C0C007E7E007F7E030350
:100F8000007F7E03037E7E03037F7E000F3E703C66
:100F9000063C703E0F00327B49493F7E007F7E0356
:100FA00003001E3F69696F2600000000000000007A
:100FB0000000030F1F3F3C7870600000007F41413C
:100FC000417F007F4141417F00307B7F783020208E
:100FD00030787F3B0003000F7F0F0F0F7F0F000360
:100FE0000000000000000000000000000000000001
:100FF000000000000000000000010101070F0F7F4A
:101000000F7F0F0F7E0F0F7F0F7F0F0F0701010163
:1010100000000000000000000000010100000000CE
:1010200000000000000000000000000000000000C0
:1010300000000000000000000000000000000000B0
:1010400000000000000000000000000000000000A0
:101050000000000000000000000000000000000090
:101060000000000000000000000000000000000080
:101070000000000000000000000000000000000070
:101080000000000000000000000000000000000060
:101090000000000000000000000000000000000050
:1010A0000000000000000000000000000000000040
:1010B0000000006F6C65645F6F6E20636D64206676
:1010C00061696C65640A0000AF6F6C65645F6F6690
:1010D0006620636D64206661696C65640A0000AE19
:1010E0005B435D005B445D005B535D005B575D00EF
:1010F0005B525D0009027B00040100A0FA090400B4
:101100000001030101000921110100012240000733
:101110000581030800010904010002030000000921
:10112000211101000122220007058203200001078E
:101130000503032000010904020001030000000967
:10114000211101000122810007058403200001090B
:101150000403000203000000092111010001222202
:101160000007058503200001070505032000011283
:101170000100020000000866750100020001020380
:10118000011C037600690061006C003A00660036BD
:10119000003400630032006200330063000000107E
:1011A00003640075006D006200700061006400005F
:1011B00000120372006500790062006F0061007226
:1011C0000064000000040309040011241FBECFEFD7
:1011D000DAE0DEBFCDBF11E0A0E0B1E0EAE3FFE678
:1011E00002C005900D92AA38B107D9F725E0AAE808
:1011F000B1E001C01D92A933B207E1F70E94FE2CB5
:101200000C9477370C940000FF93EF93E0918A01E0
:10121000F0918B01309709F00995EF91FF910895B6
:10122000FC018591803011F0EFDFFBCF0895FF279F
:10123000E0E230E247FF0CC0419597FF09C0EDE2C4
:101240006095709580959095611D711D811D911D12
:1012500027FF02C0219530E350E2AA27660F771FCF
:10126000881F991FAA1FA41710F0A41B63955A95F5
:10127000A9F7AA3008F0A95FA05DAF93F3956115B7
:1012800071058105910541F7ED3211F4EF93F39566
:10129000F21718F43F93F395FBCF8F91B5DFFA95D2
:1012A000E1F70895E991F9918591803021F0853237
:1012B00019F0AADFF9CF089520E0E894559155324E
:1012C000C1F3503311F4689455915A3348F4505394
:1012D00090F3220F022E220F220F200D250FF4CFA4
:1012E0000EF4219589919991533619F3533729F1C9
:1012F000533559F1BC0188279927E8945C3621F4CD
:101300008991999168945591543639F446EF7EF05D
:1013100077FF0DC08FEF9FEF0AC055374AE039F0D5
:10132000583540E121F0523642E009F00895FF932C
:10133000EF937DDFEF91FF91B7CFFF93EF93FC0128
:1013400081918030B9F360DFFBCFFF93EF9368DFCB
:10135000F1CFDF93CF93CDB7DEB72596A3DFCF9143
:10136000DF910895CF93DF93409137055091380571
:10137000475353409A013E5F21303240C0F020E095
:1013800032E0241B350B6091350370913603FC016C
:10139000CA01240F351FC1E0D0E08217930750F037
:1013A0007093360360933503DF91CF91089520E069
:1013B00032E0E9CF4491DC01A95CBC4F5C91451758
:1013C00081F04C93AC01A5E056954795AA95E1F7BD
:1013D000DE0102C0AA0FBB1F4A95E2F7AD016A2BDE
:1013E000752B01963196D9CFE8EDF0E080818E7FA4
:1013F00080831092E2001092DA001092E100A0EED9
:10140000B0E08C9181608C9380818F77808319BC50
:10141000A7EDB0E08C918E7F8C9380818F7E80834E
:1014200010921A0308952091E4003091E50095E6AA
:10143000A9012091EC00822F817020FF06C08091CD
:10144000E80080FF06C080E008952091E80022FDBA
:101450001AC080912703882389F0853089F0809114
:10146000EB0085FD0FC02091E4003091E5004217AC
:101470005307F9F29150E1F684E0089582E008956F
:1014800083E0089581E00895EF92FF920F931F93F8
:10149000CF937C018B010E94130AC82F811117C0C2
:1014A0008091E80085FD0BC08091E8008E778093E5
:1014B000E8000E94130A882399F3C82F08C0F70197
:1014C00081917F018093F1000150110949F78C2F20
:1014D000CF911F910F91FF90EF9008958091290374
:1014E00087FF13C08091E80082FF06C08091E8006A
:1014F0008B778093E80004C0809127038111F2CF9D
:101500000895809127038823D9F38091E80080FF14
:10151000F8CF8091E8008E77ECCF982F9093E90078
:10152000242F762F50E0891731F07091EC00209134
:10153000ED005091F00021FD07C09F5F973071F7DB
:101540008093E90081E008953091EB003E7F309375
:10155000EB003091ED003D7F3093ED003091EB00DA
:1015600031603093EB007093EC002093ED005093CA
:10157000F0002091EE0027FDE0CF80E00895CF92AB
:10158000DF92EF92FF920F931F93CF93DF93C8EDFB
:10159000D0E088818F7E8883E7EDF0E080818160F4
:1015A000808384E082BF81E080931A0388818E7FEC
:1015B000888302EE10E0F80110821092DA0081EECA
:1015C000C82ED12CF601108288818F77888388817C
:1015D0008068888388818F7D888319BC1092270357
:1015E00010922803109226031092250390EEE92E04
:1015F000F12CF70180818B7F8083888181608883D3
:1016000042E060E080E00E948D0AF60180818E7FDA
:101610008083F801808181608083808188608083FD
:10162000F70180818E7F8083888180618883DF914C
:10163000CF911F910F91FF90EF90DF90CF90089581
:10164000FC0180912F039091300386179707A0F03B
:101650006115710529F49091E8009E779093E80058
:1016600090E06115710551F4911108C08091E80076
:1016700082FF34C080E00895BC01F2CF809127033F
:101680008823C1F18530C1F18091E80083FD30C02D
:101690008091E80082FDEACF8091E80080FFE1CFF1
:1016A0008091F3002091F200382F6115710519F037
:1016B0002830310558F091E02830310509F090E0EC
:1016C0002091E8002E772093E800CBCF8191809382
:1016D000F100615071092F5F3F4FE7CF80912703E1
:1016E000882341F0853041F08091E80083FFBECF30
:1016F00081E0089582E0089583E00895089580913F
:101700001C03089587E797E79093010880930008EA
:1017100088E19AE00FB6F894A895809360000FBE18
:1017200090936000FFCF2FB7F894609110037091F1
:10173000110380911203909113032FBF08959C0110
:10174000FC0132969FEF80E04191461751F09F3F98
:1017500019F4411101C0982F8F5F8630A9F79F3F80
:1017600009F40895290F311D97FD3A95F901628317
:10177000089520910D0330910E032817390771F059
:1017800090930E0380930D03E0910B03F0910C03F3
:10179000309721F00084F185E02D0994089520917F
:1017A000090330910A032817390771F090930A034F
:1017B00080930903E0910B03F0910C03309721F023
:1017C0000680F781E02D09940895E0910B03F091D4
:1017D0000C03309721F00190F081E02D099480E016
:1017E0000895CF93DF93EC014091FE025091FF02E8
:1017F00060910003709101032FB7F894809110035A
:1018000090911103A0911203B09113032FBF841B79
:10181000950BA60BB70B843F9140A105B10518F5B8
:101820008091FE029091FF02A0910003B09101030C
:101830008093FA029093FB02A093FC02B093FD0206
:1018400084EF91E0A0E0B0E08093F6029093F7027D
:10185000A093F802B093F902D0930603C093050356
:10186000DF91CF9108950E94930B6093FA027093D9
:10187000FB028093FC029093FD0282E390E0A0E0E3
:10188000B0E0E2CFFC018481862351F49281992358
:10189000B9F06923808583FF05C081E061110FC025
:1018A00080E00895892F8F7092959F70982B862FD6
:1018B0008F7062956F70682B81E09613F1CF089559
:1018C00081E0FDCF2091E90236E0839FC001112421
:1018D000629F800D911D1124895C9C4F9093380567
:1018E00080933705089590915502803F59F4809177
:1018F000560287FF0DC01092560291110BC0109234
:101900004D0208C0813F81F48091560218169CF365
:10191000992381F08091570290915802892B09F008
:1019200064C010924B020895823F49F497FFF0CFB4
:1019300010925502809156028111ECCFE0CF833F87
:1019400019F41916ACF3E4CF20915702893F29F41A
:101950001216F4F610925702DBCF8A3F19F427FFD4
:10196000D7CFF8CF209158028B3F29F427FFD0CF53
:1019700010925802CDCF8C3F19F41216CCF3C8CF79
:10198000843F31F4809154028E7F80935402C0CF03
:10199000853F21F4809154028D7FF7CF863F21F45B
:1019A000809154028B7FF1CF873F21F480915402C4
:1019B000877FEBCF883F21F4809154028F7EE5CF63
:1019C0008D3F31F480914C028E7F80934C02A0CFEA
:1019D0008E3F21F480914C028D7FF7CF8F3F09F02D
:1019E00097CF80914C028B7FF0CF089580914C026D
:1019F00080FD16C081FD16C082FD16C080914B028D
:101A00008823A1F0883280F428E0829FC00111244D
:101A100068E270E00E94BD36862F672B39F008958A
:101A200082E0089584E0089588E0089581E00895B3
:101A300080914C0280FD14C081FD14C082FD16C04F
:101A400080914D02882381F08E3180F420E5829FC1
:101A5000C00111246EE170E00E94BD36862F08950A
:101A600084E1089588E2089588E0089580E5089566
:101A7000803F31F40E94180D81958093560208959D
:101A8000813F19F40E94180DF8CF823F31F40E9473
:101A9000180D8195809355020895833F19F40E9493
:101AA000180DF8CF893F29F40E94F60C8093570255
:101AB00008958A3F21F40E94F60C8195F7CF8B3F61
:101AC00031F40E94F60C81958093580208958C3F62
:101AD00019F40E94F60CF8CF843F31F4809154023F
:101AE0008160809354020895853F21F480915402CF
:101AF0008260F7CF863F21F4809154028460F1CF59
:101B0000873F21F4809154028860EBCF883F21F415
:101B1000809154028061E5CF8D3F31F480914C0279
:101B2000816080934C0208958E3F21F480914C0295
:101B30008260F7CF8F3FB9F780914C028460F1CF7C
:101B4000F894E82FE295EF70F0E031A1282F2F7084
:101B500081E090E001C0880F2A95EAF7982F9095D0
:101B6000932391A392A1892B82A3789408959091B5
:101B7000110292FF06C0282F28712830F9F4877FC0
:101B8000846093FF06C0282F28712831F1F4877EE6
:101B900084612091120220FF06C0382F387138303E
:101BA000D9F4877F816021FF06C0282F2871283152
:101BB000D1F4877E816194FD877E0895282F24715A
:101BC0002430F9F68B7F8860DCCF282F24712431F4
:101BD00001F78B7E8861DDCF382F3171313019F7F5
:101BE0008E7F8860E0CF282F2171213121F78E7EF2
:101BF0008861E1CFCF93DF93EC0182389105A9F1A1
:101C0000D8F58133910509F496C048F589329105DC
:101C100009F48AC08A9709F495C0C11521E5D20755
:101C200008F0BCC0C11530E5D30708F014C1C83EA8
:101C3000D10508F09CC0C03ED10560F5C83AD10579
:101C400008F087C0C53AD10508F0FDC0C130D10504
:101C500009F12097F9F0C430D105E0F440C0853394
:101C6000910509F45AC0C997C1F680911102837099
:101C700089F0C0EED0E00EC0833E910599F170F47A
:101C8000803E910501F1823E910539F68091110265
:101C900082FD21C0CE01DF91CF910895863E91054E
:101CA00061F1873E910571F1843E910509F0B5CF50
:101CB0008091120281FFEECF80911102C7EED0E039
:101CC00084FD0DC0E7CF8091110280FD12C190917B
:101CD000120290FFDFCFC3EED0E084FFDBCFD0E075
:101CE000C0E0D8CF8091110282FD06C1909112020E
:101CF00090FDBFCF84FFCECFF2CF8091110283FD44
:101D0000DDCFC8CF8091110283FDF9C090911202FE
:101D100091FFF0CFC4EED0E0BDCF8091110285FFDE
:101D2000B9CFC9E2D0E0B6CF8091110285FFB2CF22
:101D3000C5E3D0E0AFCF8091110286FFABCFCAE2FE
:101D4000D0E0A8CF8091110286FFA4CFC1E3D0E0FC
:101D5000A1CFCF3BD10518F6C85AD0E0CC0FDD1F7C
:101D6000CE5DDE4F0990D881C02DD46493CFC115CC
:101D700040E2D40758F4C11581E0D80708F08ACFB3
:101D8000C03FD10508F4ABCFD06584CFC11590E436
:101D9000D90708F4A4CFDF70D06A7CCFC11525E540
:101DA000D20700F5C11534E5D30708F08AC0C11584
:101DB00043E5D40708F071C0C11582E5D80708F4DF
:101DC00067C0CE018370992721E030E002C0220F66
:101DD000331F8A95E2F7C695C69580E2C89FE00159
:101DE000112452C0C11599E5D907A8F4C11528E5F9
:101DF000D20708F06BC0C11536E5D30708F06FCFE6
:101E00008C2F0E94B70DC82FD0E0DC2FCC27CC2719
:101E1000DF71D0623FCFC1154AE5D40708F45BC03B
:101E2000CE0190568115904208F059CF8D2F8F71B9
:101E30000E94B70D90E0982F882788279F719C01FA
:101E40002C2BE901E6CFC55AD0E0C15EDE4FC88138
:101E5000D0E0D0641FCFCE01E4E096958795EA9557
:101E6000E1F783702C2F26952695237040E2249F5E
:101E700090011124382B8C2F8370C1E0D0E002C078
:101E8000CC0FDD1F8A95E2F7C22BD32BDC6802CF83
:101E9000DC2FCC27C16FD06AFDCECE01837099278D
:101EA00021E030E002C0220F331F8A95E2F7C69589
:101EB000C69590E2C99FE0011124C22BD32BDA68AA
:101EC000E9CEDC2FCC27C46FD06AE4CEDC2FCC2740
:101ED000C06FD06ADFCE8C2F8F700E94B70D34E0B8
:101EE000D695C7953A95E1F7CF709C2FEC01D06954
:101EF000D1CEC9E3D0E0CECEC2EED0E0CBCEC6EE9E
:101F0000D0E0C8CE80910902882331F010920902F6
:101F1000109208021092070208958095909106028F
:101F200098239093060208951092FC011092FB01F1
:101F30001092FA0108958091F90181111092F9012E
:101F40000895EEE8F1E09191891303C0DF01119744
:101F50001C9291E0E439F907B1F708958091F801F6
:101F60009091C701981301C008958F5F8770FACFD1
:101F70009E3F51F1292F220F220FE22FE90FE80F88
:101F80009E2F9770E695E695E69583E0E89FF00131
:101F90001124E854FE4F50E040E080E0219130E011
:101FA000092E02C0369527950A94E2F7217033274F
:101FB000042E01C0220F0A94EAF7822B4F5F5F4F75
:101FC0004330510559F7089580E008959E3F71F11F
:101FD000292F220F220FE22FE90FE80F8E2F877093
:101FE00041E001C0440F8A95EAF7E695E695E6954B
:101FF00083E0E89FF0011124E854FE4F30E020E038
:1020000070E05191DF011197CB01022E02C096952D
:1020100087950A94E2F78170819585278423852727
:102020008C932F5F3F4F2330310559F708958295E8
:1020300090E09C01220F331F220F331F2C7C9595BB
:102040008795959587958373282B30E0C901880F74
:10205000991F8A7A359527952575822B0895982F93
:1020600092959F7011F0892F94E0282F2695269540
:1020700011F09E5F822F869509F09F5F892F08954A
:102080009C013A9521153F4150F5FC01EE27F17076
:10209000BC0166277270AC01442754709C01222752
:1020A000387094FF0EC080E1EF2B09F480E0672BBD
:1020B00009F08062452B09F08064232B89F0806849
:1020C000089581E0EF2B09F480E0672B09F082602E
:1020D000452B09F08460232B19F08860089580E077
:1020E0000895CF92DF92EF92FF920F931F93CF93B9
:1020F000DF936C017B0164E670E088E70E949C3509
:10210000EC0197FD12C010E000E0F601E00FF11FB6
:10211000849164E670E00E941636EC01892B29F464
:102120000F5F1F4F0E151F0581F70E949936CE01D4
:10213000DF91CF911F910F91FF90EF90DF90CF90A3
:1021400008958091F4029091F502911103C091E0FD
:1021500089270895882389F062E070E08EED90E190
:102160000E947110892B39F089EC90E10E941009CE
:102170008091F40208951092F4028091F402E7CF66
:10218000CF93C091F4028091F5028823F1F00E9470
:10219000930B605A75418F4F9F4F6093F00270937D
:1021A000F1028093F2029093F302C1110CC062E03D
:1021B00070E087EC90E10E947110892B49F083EB6D
:1021C00090E10E941009C091F4028C2FCF910895E4
:1021D00081E08093F402F7CF9FB7F8941092180330
:1021E0009FBF90912703943009F048C02091E900E7
:1021F0002F703091EC00932F917030FD90E8922B6E
:1022000025E02093E9002091EB0020FF34C02091CD
:10221000EE0027FF30C020911703222321F02091E8
:10222000E80025FF28C01092170326E03091E8004F
:1022300035FF14C08093F1008091E80085FD27C030
:102240008091E80080FFFCCF8091E8008E7780933A
:10225000E8009F709093E90080E008953091270393
:10226000343049F43091EB0035FD05C0215041F484
:1022700081E0809317039F709093E9008FEF08959A
:10228000EFE9FFE03197F1F700C00000CFCF8FB743
:10229000F89421E0209318038FBFDBCF80931403C1
:1022A0007093160360931503809127038430F9F42B
:1022B0008093E9008FEF9091E800815095FD06C072
:1022C00095ED9A95F1F700008111F5CF8091E80026
:1022D00085FF0DC050E040E063E070E084E193E0F2
:1022E0000E94440A8091E8008E778093E800089568
:1022F000BC0184E00C944E11BC0183E00C944E119F
:102300009C0184E08093E9009FEF8091E800915068
:1023100085FD06C085ED8A95F1F700009111F5CF96
:102320008091E80085FF0CC050E040E066E070E07E
:10233000C9010E94440A8091E8008E778093E800EA
:102340000895CF93DF93EC0181E08093E9008FEF54
:102350009091E800815095FD06C095ED9A95F1F7B2
:1023600000008111F5CF8091E80085FF14C050E096
:1023700040E068E070E0CE010E94440A8091E800ED
:102380008E778093E80088E0FE01ADE1B3E0019034
:102390000D928A95E1F7DF91CF9108951F93CF9326
:1023A000DF93162FC0913705D09138058A30D1F4CC
:1023B0002091E902CE0187539340622F70E00E9482
:1023C0009D36281B822F66E00E94B136C82FC1506F
:1023D00020F4DF91CF911F91089560E080E20E9488
:1023E000CE11F5CF8D30E9F4C753D3402091E902E7
:1023F000622F70E0CE010E949D36281B822F9E0125
:10240000280F311D2115324018F080E0D0E0C0E0E7
:10241000C80FD11DC95CDC4FD0933805C093370578
:10242000D8CF96E0FE01AAEEB2E001900D929A9507
:10243000E1F7803E90F186E0FE0111928A95E9F77E
:10244000C0913705D0913805111133C046E050E0F6
:10245000BE018AEE92E00E9409379E012753334065
:10246000892B91F52A5F3F4F4091E902642F70E07C
:10247000C9010E949D36481B463010F4240F311DBF
:10248000211572E0370710F030E020E0295C3C4F66
:1024900030933805209337059CCFF6E08F9FB0012D
:1024A00011246D58744F46E050E0CE010E94003771
:1024B000C7CF9E012A5F3F4FFE012E173F0731F223
:1024C000808180958193F9CFC90145E096958795E4
:1024D0004A95E1F741E050E0BA0102C0660F771F6C
:1024E0008A95E2F7CB016091350370913603862B14
:1024F000972BB9016B5F7F4FE5E076956795EA957D
:10250000E1F702C0440F551F6A95E2F7842B952B23
:102510009093360380933503A5CF1F93CF93DF931A
:10252000EC01162FFE018491811104C0DF91CF913F
:102530001F910895612F0E94CE112196F3CFCF9362
:10254000DF93C7E3D1E060E0CE010E943B372196E4
:10255000C11584E0D807B9F7DF91CF9108951F9393
:10256000CF93DF93122F843010F5623000F54230A4
:10257000F0F428E0829FC001112424E0629FE00172
:1025800011248C0F9D1FC42FD0E0CC0FDD1FC80F6E
:10259000D91FC953DF4F632FCE010E943B37612FF4
:1025A000CE010196DF91CF911F910C943B37DF91C3
:1025B000CF911F9108950F931F93CF93DF938901BC
:1025C000843048F5643038F5453028F521153C4510
:1025D00031F42091140130911501232BE1F0C42F27
:1025E000D0E0CC0FDD1F9AE0699FC00DD11D1124F2
:1025F00098E2899FC00DD11D1124612FCE018796CD
:102600000E943B37602FCE018896DF91CF911F91BA
:102610000F910C943B37DF91CF911F910F9108954B
:10262000CF93C82F6FEF81116CE783E290E00E9497
:102630003B376FEFC11169E784E290E00E943B37BE
:102640006FEFC11163E985E290E0CF910C943B37C5
:102650007F928F929F92AF92BF92CF92DF92EF9232
:10266000FF920F931F93CF93DF93CDB7DEB72A97D7
:102670000FB6F894DEBF0FBECDBFA0901401B0908E
:10268000150181E090E0909315018093140183ED92
:10269000C82E8AE0D82E10E0760100E015C0F401C3
:1026A00025913491472D602F812F0E94DB1282E00B
:1026B000880E911C739495E07912F1CFEAE0EE0E4A
:1026C000F11C0F5F043019F04701712CE8CF21E0B5
:1026D00030E040E060E0812F0E94AF1221E030E066
:1026E00041E060E0812F0E94AF1221E030E040E045
:1026F00061E0812F0E94AF1221E030E041E061E013
:10270000812F0E94AF121F5FF8E2CF0ED11C143050
:1027100009F0C2CFCE0101967C018AE0F701119247
:102720008A95E9F78FEF9FEF9E838D8387E08A87F5
:1027300007EE10E04AE050E0B801C7010E945F37A1
:10274000065F1F4F0733F1E01F07A1F7B092150195
:10275000A09214012A960FB6F894DEBF0FBECDBF2B
:10276000DF91CF911F910F91FF90EF90DF90CF906D
:10277000BF90AF909F908F907F90089580E00E94CF
:10278000101360E086E290E00E943B370E9428131D
:102790000E949F1281E00C9410130F931F93CF930C
:1027A000DF93843038F5623028F528E0829FC0013D
:1027B000112434E0639FB0011124860F971FC42FAA
:1027C000D0E0CC0FDD1FC80FD91FC953DF4FCE019A
:1027D0000E942D37082F10E0102F0027CE01019600
:1027E0000E942D379801282BC901DF91CF911F91AD
:1027F0000F91089590E080E0F8CF0F931F93CF934F
:10280000DF93843030F5643020F5453010F5C42F67
:10281000D0E0CC0FDD1F2AE0629FC00DD11D112436
:1028200038E2839FC00DD11D1124CE0187960E94EE
:102830002D37082F10E0102F0027CE0188960E9418
:102840002D379801282BC901DF91CF911F910F914E
:10285000089590E080E0F8CF462F2091E702309174
:10286000E802232B91F47E3F39F46E3F71F480919E
:10287000E5029091E6020895843038F4743028F42B
:10288000653018F4672F0C94FD1390E080E00895F4
:10289000CF92DF92FF920F931F93CF93DF936C0140
:1028A0000091340380915902082BC7E0D0E010E07A
:1028B000FC2EC8010C2E02C0959587950A94E2F76C
:1028C00080FD0CC02197A0F7F12C8F2DDF91CF91C7
:1028D0001F910F91FF90DF90CF900895B6018C2F3C
:1028E0000E942C140E94FA0D019761F3EECFCF9352
:1028F000DF93EC010E944814BE010E942C14DF916A
:10290000CF910C94FA0DFC01808191810E94771483
:1029100092959F70963091F058F4925F9F7092302C
:1029200058F4803F19F030F4883E30F481E0089587
:102930009A5FF4CF843FD1F380E00895883EB0F3EE
:10294000813FD1F7F3CF83E290E00E942D378C379F
:1029500089F484E290E00E942D37893759F485E2AA
:1029600090E00E942D3791E0833909F090E0892FA3
:102970008170089580E0FCCFCF9384E090E00E94C6
:102980002D37C82F82E290E00E942D37982F8C2F90
:10299000CF9108958F929F92AF92BF92CF92DF9284
:1029A000EF92FF920F931F93CF93DF93CDB7DEB7D4
:1029B0002A970FB6F894DEBF0FBECDBF0DE612E02A
:1029C0008BE5C82E82E0D82E97EEE92EF12C27E079
:1029D000922E3AE5A32E32E0B32E88248394D601BA
:1029E0000D931D936D014AE050E0B701CE010196B1
:1029F0000E941D37F8013896DF01892D1D928A95B6
:102A0000E9F789819A81D80111969C938E938F81E1
:102A100012968C9312978D8113968C9313978885B9
:102A200014968C931497898515968C9315978B81A2
:102A30009C8117969C938E93169718961C921897C4
:102A40008A8587FF4BC01E961C921E921D9780FFA1
:102A500003C0D80118968C9281FF04C0F8019085BC
:102A60009260908782FF07C0D80118969C911897B2
:102A7000946018969C9383FF04C0F8019085986039
:102A8000908784FF07C0D80118969C911897906191
:102A900018969C9385FF04C0F8018085806280872A
:102AA000015F1F4FFAE0EF0EF11C87E3E81681E0AB
:102AB000F80609F094CF2A960FB6F894DEBF0FBE41
:102AC000CDBFDF91CF911F910F91FF90EF90DF90DD
:102AD000CF90BF90AF909F908F900895F801B686E9
:102AE000A586B5CF69EE7EEF90E080E00E94593771
:102AF00060E082E090E00E943B3760E083E090E09D
:102B00000E943B371092590260E084E090E00E94FE
:102B10003B3760E082E290E00E943B3760E085E076
:102B200090E00E943B3760E086E090E00E943B37F7
:102B30006FEF87E090E00E943B3740E050E0BA0141
:102B400088E090E00E944D3760E08DE090E00E94C8
:102B50003B3740E050E0BA0188E190E00E944D37F9
:102B600060E087E190E00E943B3740E050E0BA012E
:102B70008CE190E00E944D3770E060E080E290E0F0
:102B80000E94593740E050E0BA0188E190E00E948D
:102B90004D3780E00E9410130E94BE1340E050E0C9
:102BA000BA018FE090E00E944D3740E050E0BA015A
:102BB00083E190E00C944D371F920F920FB60F9265
:102BC00011242F933F934F935F936F937F938F9332
:102BD0009F93AF93BF93EF93FF938091E10082FFA8
:102BE00015C08091E20082FF11C08091E1008B7FCF
:102BF0008093E100209119032F5F822F62E30E94EE
:102C0000B136992309F4C0C0209319038091DA00EA
:102C100080FF28C08091D80080FF24C08091DA0016
:102C20008E7F8093DA008091D90080FFE3C080E13D
:102C300089BD82E189BD09B400FEFDCF81E08093AA
:102C4000270380EE90E10E94100980911A03811100
:102C500009C00E94F4090E94BF0A8091E2008460CA
:102C60008093E2008091E10080FF1BC08091E20030
:102C700080FF17C08091E2008E7F8093E2008091F8
:102C8000E20080618093E2008091D80080628093AE
:102C9000D80019BC85E08093270388EE90E10E945C
:102CA00010098091E10084FF2FC08091E20084FF31
:102CB0002BC080E189BD82E189BD89B5982F9170D3
:102CC00080FFFBCF8091D8008F7D8093D8008091CA
:102CD000E1008F7E8093E1008091E2008F7E8093FF
:102CE000E2008091E20081608093E20080912803FD
:102CF000882309F489C084E0809327038CEE90E157
:102D00000E941009809127038091E10083FF2BC06E
:102D10008091E20083FF27C08091E100877F80934C
:102D2000E10082E080932703109228038091E10064
:102D30008E7F8093E1008091E2008E7F8093E2009D
:102D40008091E20080618093E20042E060E080E0F8
:102D50000E948D0A8091F00088608093F00080EFDF
:102D600090E10E941009FF91EF91BF91AF919F9167
:102D70008F917F916F915F914F913F912F910F9024
:102D80000FBE0F901F901895109219038091180391
:102D9000882309F43BCF809127038430C1F49091BC
:102DA000E9009F702091EC00822F817020FD80E867
:102DB000892B95E09093E9009091EB0090FF04C07F
:102DC0009091EE0097FD08C08F708093E9001092FB
:102DD00018031CCF1092F1009091E80095FDFACFF6
:102DE0009091E80090FFF0CF9091E8009E7790934B
:102DF000E800EACF19BC1092270384EE90E10E940C
:102E0000100910921A032ECF8091E30087FD93E002
:102E10009093270373CF78941F921FB61F921124AB
:102E20008F939F93AF93BF93809110039091110361
:102E3000A0911203B09113030196A11DB11D8093BF
:102E4000100390931103A0931203B0931303BF9147
:102E5000AF919F918F911F901FBE1F9018959C015D
:102E60004FB7F8948091100390911103A091120331
:102E7000B09113034FBF821B930B08952FB7F894A3
:102E80008091100390911103A0911203B09113034C
:102E90002FBF089580914E0283FF7EC080EB9AE0A1
:102EA0000E941009809154021F928F938BEA9AE03E
:102EB0009F938F930E94A90989EA9AE00E941009C2
:102EC00080915502282F082E000C330B3F938F93CF
:102ED00086EA9AE09F938F930E94A90984EA9AE078
:102EE0000E94100980915602282F082E000C330BE7
:102EF0003F938F9381EA9AE09F938F930E94A90951
:102F00008FE99AE00E94100980915702282F082E1D
:102F1000000C330B3F938F938CE99AE09F938F9330
:102F20000E94A9098AE99AE00E941009809158023A
:102F3000282F082E000C330B3F938F9387E99AE0DC
:102F40009F938F930E94A90984E99AE00E94100937
:102F500080914D021F928F9381E99AE09F938F9306
:102F60000E94A9098FE89AE00E94100980914C0202
:102F70001F928F938CE89AE09F938F930E94A909E8
:102F800089E89AE00E9410098DB79EB74C960FB65B
:102F9000F8949EBF0FBE8DBF0E943E179C0190917A
:102FA000550280915602982B21F0309352022093C3
:102FB00051029091570280915802982B21F0309342
:102FC000500220934F02E0910B03F0910C033097D5
:102FD00049F082E0809353020480F581E02D83E57F
:102FE00092E0099408959F92AF92BF92CF92DF92A0
:102FF000EF92FF920F931F93CF93DF9300D000D0F7
:10300000CDB7DEB719821A821B821C8280E5E82EBA
:1030100081E0F82E10E000E0CC24C394D12C29E507
:10302000A22E21E0B22EF70181917F018F3F09F49A
:1030300045C0F894E82FE295EF70F0E021A18F7081
:10304000A60102C0440F551F8A95E2F7CA01922FCC
:10305000982B91A392A18095892382A3789400C094
:10306000E4E5F1E0912C31E021912F3F09F46BC0B0
:10307000A22FA295AF70B0E090968C9190E02F7047
:1030800002C0959587952A95E2F780FD5CC0832F55
:10309000982A330FAE16BF0639F7F70131978081B2
:1030A0008F3F11F00E94A00D50EA5A95F1F7E1E030
:1030B000F0E0EC0FFD1FE00FF11F90820F5F1F4F3C
:1030C0000430110509F0AFCF44E050E0BE016F5F5E
:1030D0007F4F8DE092E00E94093711E0009709F4DC
:1030E00010E0892B91F189819A81AB81BC81809319
:1030F0000D0290930E02A0930F02B093100281E094
:1031000080930C020E943E1790930B0280930A0258
:1031100080910A0290910B020E942F170597C8F028
:1031200080910D028093470280910E0280934802A5
:1031300080910F02809349028091100280934A028D
:1031400010920C0206C080E0A3CF80910C02811186
:10315000DFCF812F0F900F900F900F90DF91CF91C5
:103160001F910F91FF90EF90DF90CF90BF90AF90A5
:103170009F9008958091060290910502892B80937B
:103180008C0180910902882319F10E943E17209139
:10319000070230910802821B930B8838934110F08C
:1031A0000E94820F80918C0190910902892B80935B
:1031B0008C0120E08EE891E0FC013191CF013111CA
:1031C0002F5FF1E084399F07B9F721110E94820F28
:1031D00080910203809590918C0189239091030343
:1031E000892B80938C0148E050E06DEF71E08CE812
:1031F00091E00E940937892BA9F088E0ECE8F1E022
:10320000ADEFB1E001900D928A95E1F7E0910B03EB
:10321000F0910C03309731F00280F381E02D8CE8BF
:1032200091E00994089590E080E00E94CF0B90E037
:1032300080E00E94B90B109205020E94BA1886E045
:10324000E3E5F2E0DF011D928A95E9F710924D0265
:1032500010924B0210924C020C944A178093340344
:103260000C94131980913403982F9670963019F4AA
:1032700088600C942E19877FFCCF21E030E001C0DC
:10328000220F8A95EAF720958091340382230C94CB
:103290002E199091FC01809589238093FC01282FA1
:1032A000277091F4282F082E000C330B9217130669
:1032B00059F09091120292FD07C0859585958595EC
:1032C0000E943D190C94940F0895CF93C09112025F
:1032D000C2FB992790F9981799F080FBC2F9C09327
:1032E00012026091110284E090E00E943B376C2F43
:1032F00082E290E00E943B3782E0CF910C94491922
:10330000CF91089521E030E001C0220F8A95EAF7BD
:1033100080913403822B0C942E19809359020C94C3
:10332000131910920602EEE8F1E086E0DF011D922B
:103330008A95E9F70C9413191F93CF93DF93CDB7B8
:10334000DEB7AA970FB6F894DEBF0FBECDBF89E2F5
:1033500093E02091F100DC012D93CD01B3E08133A6
:103360009B07B9F780912A03833009F472C0B8F43F
:10337000813009F449C0823009F4B3C08091E8007B
:1033800083FF9CC28091290390912A039A3008F010
:1033900095C2E92FF0E0E758F84C0C94D1368A300A
:1033A00009F48EC08B3009F471C0893039F78091EF
:1033B0002903813219F780912D0390912E030097F4
:1033C00011F00297D9F68091E800877F8093E8009A
:1033D0008091E80082FF38C09091F3008091F20064
:1033E000029731F48091F100813011F0863021F4A0
:1033F0008091F10080931C038091E8008B7780938B
:10340000E8000E946E0ABACF80912903813A09F040
:10341000B5CF8091E800877F8093E80080912D03ED
:1034200090912E03892B61F468E08DE193E070E0C8
:103430000E94200B8091E8008B778093E8009ECF5C
:1034400060E090E080E0F3CF809127038111C0CF4E
:1034500095CF80912903813A09F090CF80912D0377
:1034600090912E03892B09F089CF8091E800877F06
:103470008093E8008091E80080FFFCCF80911601E6
:103480008093F1008091E8008E77B9CF8091290375
:10349000813209F073CF80912D0390912E03892BF7
:1034A00009F06CCF8091E800877F8093E8000E944C
:1034B0006E0A80912B03809316010E9491195ECFB2
:1034C00080912903813209F059CF8091E800877FEC
:1034D0008093E8000E946E0A80912C0380931B0366
:1034E0004DCF80912903813A09F048CF8091E800BF
:1034F000877F8093E8008091E80080FFFCCF809177
:103500001B03BECF803899F0823809F0D7C1809173
:103510002D038F70873008F0D1C18093E90080912E
:10352000EB0085FB882780F91092E90006C08091A6
:10353000250390912603911182609091E800977F76
:103540009093E8008093F1001092F1008091E800E0
:103550008E77B0C1882309F49EC1823009F0AEC1D4
:1035600080912B038111A1C180912D038F702FEFCA
:10357000280F263008F0A2C18093E9002091EB00CB
:1035800020FF93C1933031F48091EB0080628093EF
:10359000EB008BC19091EB0090619093EB0021E0E8
:1035A00030E001C0220F8A95EAF72093EA001092DA
:1035B000EA008091EB008860EACF81117FC1109111
:1035C0002B031F778091E3008078812B8093E300A9
:1035D0008091E800877F8093E8000E946E0A8091C6
:1035E000E80080FFFCCF8091E30080688093E300D7
:1035F00082E0111183E08093270360C180588230FC
:1036000008F05CC120912B0330912C032C3DE3E0AA
:103610003E07A1F583E08A838AE289834FB7F89455
:10362000DE01139620E03EE051E2E32FF0E05093FC
:103630005700E49120FF03C0E295EF703F5FEF7009
:103640008E2F90E0EA30C0F0C7968D939D932F5F48
:10365000243159F74FBF8091E800877F8093E800BD
:103660006AE270E0CE0101960E94200B8091E80092
:103670008B778093E80022C1C096E7CF80912D031D
:1036800090912E03432F55274330510509F44AC02A
:1036900078F54130510509F485C08BE790E0E4EFFF
:1036A000F0E14230510509F009C12091E800277F7F
:1036B0002093E80020912F03309130038217930765
:1036C00008F49C0140E02115310509F070C041115A
:1036D0006EC08091E80082FDC9CF809127038823C6
:1036E00029F2853019F28091E80083FFF2CFBECF36
:1036F0004132510509F447C04232510509F0DEC09C
:103700008430910508F0DAC0FC01EE0FFF1FE75886
:10371000FE4F0190F081E02D8B589E4FDC018C9183
:1037200090E01DC0332721303105E9F02115310526
:1037300079F022303105F9F02330310509F0BEC0AF
:10374000E1E8F1E1E4918E2F90E0E1E8F1E107C0DA
:10375000E5ECF1E1E4918E2F90E0E5ECF1E10097EA
:1037600009F4ACC0A2CFE1EBF1E1E4918E2F90E03F
:10377000E1EBF1E1F4CFEFE9F1E1E4918E2F90E09C
:10378000EFE9F1E1ECCF8430910508F097C0880FA4
:10379000991FFC01EF57FE4F0190F081E02D89E069
:1037A00090E083CF82E190E0EFE6F1E17ECF80917F
:1037B0002703882309F45ACF853009F457CF809125
:1037C000E80083FD53CF8091E80082FD82CF809195
:1037D000E80080FF78CF9091F3008091F2002115EE
:1037E000310519F08830910550F041E0089709F053
:1037F00040E08091E8008E778093E80064CF4491A8
:103800004093F1003196215031090196E8CF80387C
:1038100009F054C08091E800877F8093E800809190
:1038200028038093F10092CE811148C010912B03A0
:10383000123008F043C08091E800877F8093E80051
:10384000109328030E946E0A112311F084E005C032
:103850008091E30087FDFACF81E08093270342E067
:1038600061EC81E00E948D0A42E261EC84E00E94FA
:103870008D0A42E261EC82E00E948D0A42E260EC35
:1038800083E00E948D0A42E261EC85E00E948D0A8D
:103890008091270313C080912B03813079F481E05C
:1038A000933009F080E0809326031092E900809124
:1038B000E800877F8093E8000E946E0A8091E8000C
:1038C00083FF0AC08091E800877F8093E8008091A1
:1038D000EB0080628093EB00AA960FB6F894DEBFEF
:1038E0000FBECDBFDF91CF911F9108951F920F9210
:1038F0000FB60F9211242F933F934F935F936F93C3
:103900007F938F939F93AF93BF93CF93DF93EF9367
:10391000FF93D091E900DF708091EC00C82FC17057
:1039200080FDC0E81092E9008091F000877F8093CD
:10393000F00078940E949C191092E9008091F000A8
:1039400088608093F000CD2BCF70C093E900FF9189
:10395000EF91DF91CF91BF91AF919F918F917F9127
:103960006F915F914F913F912F910F900FBE0F90EC
:103970001F901895882341F0809590910502892326
:10398000809305020C94BA180895882339F0909119
:103990000502982B909305020C94BA180895882379
:1039A00021F00E948D0F0C94BA180895882339F0E5
:1039B00090910602982B909306020C94BA180895E1
:1039C000882361F19CEF980F913A20F40E94A10F97
:1039D0000C94BA1890E2980F983050F4877091E0E8
:1039E00001C0990F8A95EAF7892F0E948D0FF0CFB9
:1039F0009BE5980F933020F490E080E00C94CF0B7F
:103A000098E5980F973120F490E080E00C94B90B82
:103A1000803F20F00E94730C0C944A170895FF9287
:103A20000F931F93CF93DF93F82E0091070310910C
:103A300008030115110509F449C0109206031092FC
:103A400005031092020310920303D8011696CD913C
:103A5000DC919E013A9521153F4108F4D07ED1E0DA
:103A6000C11101C0D0E0D8011996ED91FC911A97CF
:103A7000309731F01B966D917C9180E00995D823A9
:103A8000DD2339F08CEF8C0F813A38F58C2F0E94B2
:103A9000A10FFF2099F0E0910703F09108038085C2
:103AA00084FD0CC080910403882341F080819181C2
:103AB0009C0121503109253A3D45A8F00E94BA18D1
:103AC000109208031092070310920403C801DF91BB
:103AD000CF911F910F91FF9008950E94BA188C2FDB
:103AE0000E94E01CD6CF0E94F10BE8CFCF93C82FE5
:103AF000882309F44FC08CEF8C0F813A90F4EEE8E4
:103B0000F1E08191C81709F43FC081E0E439F8077A
:103B1000C1F76C2F8CE891E00E949F0BCF910C9421
:103B2000BA1880E28C0F883068F4C77021E030E06A
:103B300001C0220FCA95EAF780910602822B80937A
:103B40000602ECCFEBE5EC0FE33040F4F0E0E15E91
:103B5000FE4F808190E0CF910C94CF0BE8E5EC0F05
:103B6000E73150F4F0E0EE0FFF1FEE5DFE4F808175
:103B70009181CF910C94B90BC03F60F08C2F0E94C3
:103B8000380DCF910C944A178C2F0E94A10F0E94E0
:103B9000BA18BFCFCF9108951F93CF93DF93182FFB
:103BA000D0E0C0E0893311F4C0E5D0E0812F0E945D
:103BB000761D209731F4812FDF91CF911F910C94C6
:103BC000E01C8FE99FE00197F1F700C0000021970A
:103BD000F0CF0F931F93CF93DF93C62FD42F022FD5
:103BE000FC0182818823A1F0609333030E943E1779
:103BF0009093320380933103C77081E001C0880F36
:103C0000CA95EAF7DF91CF911F910F910C94D61CC2
:103C100080913303681335C0809131039091320352
:103C20000E942F17883C910560F510E21D0FCD17FB
:103C3000B9F080E28C0F883040F4C77081E001C099
:103C4000880FCA95EAF70E94CF1C183048F481E02B
:103C50009D2F977001C0880F9A95EAF70E94D61C95
:103C6000802F0E94CC1D183098F4D77081E001C0DD
:103C7000880FDA95EAF7DF91CF911F910F910C949D
:103C8000CF1CC77081E001C0880FCA95EAF7F3CF57
:103C9000DF91CF911F910F910895AF92BF92CF9274
:103CA000DF92EF92FF920F931F93CF93DF93EC017C
:103CB0008AE0A82E2881222309F48CC02130C9F57E
:103CC00099818A81913021F422960E94CC1D05C0F1
:103CD000923029F422960E94761D2196EBCF9330E4
:103CE00021F422960E94E01CF8CF943011F0219626
:103CF000F4CF229630E020E0AE014F5F5F4F80535B
:103D0000990B8A30910550F02150310930F38FE939
:103D10009FE00197F1F700C00000F6CFA29EB0012E
:103D2000A39E700D11249C01260F371F8981EA0183
:103D3000E3CFE22FF0E0EF51FE4FB490822F869553
:103D40008695869590E0FC01EF52FE4FE490277037
:103D5000F12C022E02C0F594E7940A94E2F731E0C8
:103D6000E322FF24FC01EF53FE4FC490D12C022E1E
:103D700002C0D594C7940A94E2F731E0C322DD244F
:103D8000FC01EF54FE4F049110E002C01595079519
:103D90002A95E2F701701127E114F10419F081EE80
:103DA0000E94761DC114D10419F086EE0E94761D82
:103DB0008B2D0E94CC1DCD2819F086EE0E94E01CB0
:103DC000EF2819F081EE0E94E01C012B09F485CF49
:103DD0008CE27BCFDF91CF911F910F91FF90EF90FD
:103DE000DF90CF90BF90AF900895CF93DF93EC0119
:103DF0000E9440109E01205E31092830310510F0EC
:103E0000209739F40E94D61C8C2FDF91CF910C940F
:103E1000761D0E94C51CF8CF9091120292FD10C031
:103E200098E0899F90011124622B6093FC010E940D
:103E300082190E943E179093FB018093FA01089526
:103E40000C9482191F93CF93DF93CDB7DEB767979A
:103E50000FB6F894DEBF0FBECDBF4B8B5C8B6D8B66
:103E60007E8B8F8B6111109205021A8A198A85E068
:103E7000FE017396DE011D9601900D928A95E1F781
:103E80008091120282FD1CC00E943E172091FA010F
:103E90003091FB01821B930B8838934120F0809175
:103EA000FC0182FF7FC00E943E17209107023091E3
:103EB0000802821B930B8838934110F00E94820FF6
:103EC00086E0FE013D96DE01179601900D928A95DF
:103ED000E1F7CE0107960E945E2B882389F016E059
:103EE0008091F8019091C701891349C067960FB678
:103EF000F894DEBF0FBECDBFDF91CF911F91089523
:103F000086E0FE013796DE01119601900D928A95AA
:103F1000E1F78A859B85892B11F38F819885892309
:103F20008F3FE9F22091C70130E0C9010196877007
:103F300099274091F8014817190671F40E949119C8
:103F40001092C7011092F80186E0E1ECF1E0DF0188
:103F50001D928A95E9F7C3CF96E0929FD001939F77
:103F6000B00D1124A853BE4FFE01319601900D9261
:103F70009A95E1F78093C7010E94AE0FB0CF819F61
:103F8000C001112488539E4F0E945E2B882309F4A0
:103F9000ADCF8091F80190E00196877099278093CA
:103FA000F8019ECF82E00E9449197DCF0F931F93A5
:103FB000CF93DF9300D000D00F92CDB7DEB78C0146
:103FC0009093E6028093E502011580E2180720F540
:103FD000802F0E94E01CC8010E9440109801205EC2
:103FE00031092830310510F0012B59F40F900F9052
:103FF0000F900F900F90DF91CF911F910F910C9424
:10400000CF1C0F900F900F900F900F90DF91CF91DA
:104010001F910F910C94BA1C8EEF89838A831B82A7
:104020000E943E178160782F9D838C8349815A813D
:104030006B818D810F900F900F900F900F90DF91FB
:10404000CF911F910F910C94221FCF93DF9300D03B
:1040500000D00F92CDB7DEB79093E6028093E502D1
:10406000811520E2920748F40F900F900F900F9067
:104070000F90DF91CF910C94F51E8EEF89838A8388
:1040800081E08B830E943E178160782F9D838C8313
:1040900049815A816B818D810F900F900F900F9005
:1040A0000F90DF91CF910C94221FAF92BF92CF92CD
:1040B000DF92EF92FF920F931F93CF93DF93B82E6F
:1040C000A62EC090340380915902C82AC7E0D0E0E0
:1040D000D12CF12CE12CD701C6010C2E04C0B695D1
:1040E000A795979587950A94D2F780FF20C04A2D0F
:1040F0006B2D8C2F0E94CD138C0181309105B9F06E
:104100000E9425208FE39CE90197F1F700C0000091
:10411000C8010E94D61F81E0DF91CF911F910F91BE
:10412000FF90EF90DF90CF90BF90AF9008952197D0
:1041300090F64A2D6B2D80E00E94CD13EC010E9479
:1041400025208FE39CE90197F1F700C00000CE0124
:10415000E0CF2F923F924F925F926F927F928F9219
:104160009F92AF92BF92CF92DF92EF92FF920F9306
:104170001F93CF93DF93CDB7DEB72A970FB6F8948E
:10418000DEBF0FBECDBF3C01DC0113968D919C912B
:104190001497892B41F08C9111969C9189238F3F24
:1041A00011F00C948C2A2A960FB6F894DEBF0FBE3D
:1041B000CDBFDF91CF911F910F91FF90EF90DF90D6
:1041C000CF90BF90AF909F908F907F906F905F90B7
:1041D0004F903F902F9008950E944814182F682FF9
:1041E00089819A810E94E60F69817A81812F0E94DC
:1041F0002C141C018150954521018F3F910510F42D
:10420000B5E55B26F3019280992009F4D5C2FFEF52
:104210004F16510419F110F12AE242162DE552060B
:1042200021F01092B401210162C08091B40191E0AB
:1042300089278093B4018091FC01877009F4B3CF82
:10424000D30112968C91882309F4ADCF809112028C
:1042500082FDA9CF82E00E944919A5CF8091B401C7
:10426000882309F436C11092B40130EC431651048E
:1042700008F087C040E84416510408F0F4C050E448
:104280004516510408F0B9C021E030E040E050E0AC
:1042900060E070E080E090E0042D0E94DE36E09166
:1042A00094012E2BE09195013E2BE09196014E2B2F
:1042B000E09197015E2BE09198016E2BE0919901BE
:1042C0007E2BE0919A018E2BE0919B019E2B2093F7
:1042D0009401309395014093960150939701609318
:1042E00098017093990180939A0190939B01C20168
:1042F00082519F45409710F00C94632A8FEF93E012
:104300000E942D37BEEE4B0E07E311E0811193CFD3
:104310004110D6C219821A821B821C82BB24BA9415
:104320007801FFEFEF1AFF0AC8010E942D37898339
:104330001A82882309F47FCF813009F025C36801F0
:1043400022E0C20ED11CC7010E942D37E82E8A83BD
:10435000882309F470CFC6010E942D37F82E8FEF05
:104360008E0D833008F0BAC2680133E0C30ED11C51
:10437000FB82FF2021F0CE0101960E944D1E860196
:10438000CFCF8FEF4816510411F008F07DCF21E018
:1043900030E040E050E060E070E080E090E08201DA
:1043A000005C11090E94DE36E091AC012E2BE091F9
:1043B000AD013E2BE091AE014E2BE091AF015E2BA3
:1043C000E091B0016E2BE091B1017E2BE091B20142
:1043D0008E2BE091B3019E2B2093AC013093AD0165
:1043E0004093AE015093AF016093B0017093B1015F
:1043F0008093B2019093B3017ACF21E030E040E0A6
:1044000050E060E070E080E090E08201005411092B
:104410000E94DE36E0919C012E2BE0919D013E2B07
:10442000E0919E014E2BE0919F015E2BE091A00157
:104430006E2BE091A1017E2BE091A2018E2BE091E9
:10444000A3019E2B20939C0130939D0140939E01DC
:1044500050939F016093A0017093A1018093A201EA
:104460009093A30144CF21E030E040E050E060E0D1
:1044700070E080E090E08201005811090E94DE3671
:10448000E091A4012E2BE091A5013E2BE091A60125
:104490004E2BE091A7015E2BE091A8016E2BE091DD
:1044A000A9017E2BE091AA018E2BE091AB019E2BFE
:1044B0002093A4013093A5014093A6015093A70136
:1044C0006093A8017093A9018093AA019093AB0116
:1044D0000ECF90E44916510408F070C0E0919401A9
:1044E000F0919501A0919601B091970120919801CA
:1044F0002E838090990130919A01388740919B01D9
:104500004A8721E030E040E050E060E070E080E089
:1045100090E0042D0E94DE36A22EAE22B32EBF22E2
:10452000C42ECA22D52EDB22EE80E622F72EF820FA
:10453000088508231A8519230E94F73609F073CEDF
:1045400040EC4416510408F09EC050E84516510452
:1045500008F001C180E44816510408F0CBC021E006
:1045600030E040E050E060E070E080E090E0042D5A
:104570000E94DE3620953095409550956095709557
:10458000809590952E233F234A235B23AE816A2397
:104590007821B8858B23EA859E232093940130935C
:1045A0009501409396015093970160939801709301
:1045B000990180939A0190939B013DCE50E8451656
:1045C0005104F8F4E0919C01F0919D01A0919E01AD
:1045D000B0919F018091A0018E838090A101909164
:1045E000A20198872091A3012A8721E030E040E0D2
:1045F00050E060E070E080E090E08201005411093A
:1046000089CF30EC43165104F8F4E091A401F09105
:10461000A501A091A601B091A7014091A8014E83E8
:104620008090A9015091AA0158878091AB018A8797
:1046300021E030E040E050E060E070E080E090E0B9
:1046400082010058110966CFE091AC01F091AD01F3
:10465000A091AE01B091AF019091B0019E83809086
:10466000B1012091B20128873091B3013A8721E04E
:1046700030E040E050E060E070E080E090E08201F7
:10468000005C110947CF9FEF4916510411F008F063
:1046900066CF8201005C110921E030E040E050E08B
:1046A00060E070E080E090E00E94DE36209530957A
:1046B0004095509560957095809590952E233F2359
:1046C0004A235B23BE816B237821E8858E23FA85FC
:1046D0009F232093AC013093AD014093AE015093E2
:1046E000AF016093B0017093B1018093B2019093D8
:1046F000B301A1CD82010054110921E030E040E076
:1047000050E060E070E080E090E00E94DE362095AE
:1047100030954095509560957095809590952E2395
:104720003F234A235B23FE816F237821A8858A23B8
:10473000BA859B2320939C0130939D0140939E0159
:1047400050939F016093A0017093A1018093A201F7
:104750009093A30170CD82010058110921E030E04F
:1047600040E050E060E070E080E090E00E94DE36E3
:1047700020953095409550956095709580959095D1
:104780002E233F234A235B23EE816E237821F88575
:104790008F23AA859A232093A4013093A5014093E7
:1047A000A6015093A7016093A8017093A90180937B
:1047B000AA019093AB013FCD2FEF4216510409F0AF
:1047C00060F530E443165104B8F5A0909401B09020
:1047D0009501C0909601D0909701E0909801F090DB
:1047E0009901E0919A0110919B0121E030E040E0B5
:1047F00050E060E070E080E090E0042D0E94DE3642
:10480000A222B322C422D522E622F722082F0E23A9
:1048100019230E94F73609F40ECDF0E12F16FFE5BB
:104820003F0609F4BDC0210121E122162FE5320621
:1048300009F0C3C082E0B5C040E844165104A0F4BA
:10484000A0909C01B0909D01C0909E01D0909F01CE
:10485000E090A001F090A101E091A2011091A301CC
:1048600050E4451A5108C1CF80EC48165104A0F419
:10487000A090A401B090A501C090A601D090A7017E
:10488000E090A801F090A901E091AA011091AB017C
:1048900090E8491A5108A9CFA090AC01B090AD01A1
:1048A000C090AE01D090AF01E090B001F090B101A6
:1048B000E091B2011091B301A0EC4A1A510895CFD2
:1048C0000115E4E01E0709F4B6CCC8010E942D379B
:1048D000811101C04A940F5F1F4F1ACD8BEF8E0DCF
:1048E000833050F5C8010396FB826C01FF2009F468
:1048F00046CD680144E0C40ED11C0E942D378C8344
:10490000882309F43CCD0B811C8101305FEF150732
:1049100010F0102F002786E0E81651F097E0E91616
:1049200019F0C8010E942520C8010E94D61F27CD7A
:10493000C8010E94252023CDA4E0EA1220CD680101
:10494000B4E0CB0ED11CC80103960E942D37FF2086
:1049500009F471CC882309F46ECC8150990BB89E70
:104960009001B99E300D1124EF2DE150FF0BCF01C6
:10497000820F931F019708F402CDAFE9BFE01197B2
:10498000F1F700C00000F6CFCE0101960E944D1E47
:104990006701F5CC81E00E9482190E9432194BCC4C
:1049A00081E00E943D19F9CF992009F443CF82E0BC
:1049B000F2CF81E0809300013ECC809100018823FA
:1049C00009F4E0C4620130EEC31AD1083090090244
:1049D0008091F901382A80910602382A48E0C416ED
:1049E000D10408F089C092012770332781E090E05C
:1049F00001C0880F2A95EAF7992009F47AC0382A6D
:104A0000D3018D919C910E94B80F21E030E05901B3
:104A100002C0AA0CBB1C8A95E2F7E0910703F09153
:104A20000803FF83EE832091B5013091B6013987E9
:104A30002887212CE22DF0E0EE0FFF1FE55AFD4FF5
:104A4000008111810115110509F4D0C4311005C090
:104A5000D80112968C9181118BC0F801838190E06E
:104A60008A219B21892B09F483C08085982F977018
:104A700009F487E0F8E0CF16D10408F057C0992078
:104A800009F450C086958170882309F471C0D8015B
:104A9000ED90FC90E414F50419F4992009F468C031
:104AA000EE81FF810E171F0709F462C0D8011D9621
:104AB000ED91FC91309721F08081882309F458C052
:104AC000632DC8010E94420C882309F451C0E414EC
:104AD000F50409F044C5E114F10409F445C5911049
:104AE00045C5E885F985EE16FF0609F041C0912C11
:104AF0003DC58095382284CF992009F460C4509236
:104B0000B6014092B5010E94930B6093FE02709330
:104B1000FF0280930003909301031092060310920A
:104B200005036ECF82FB882780F9AECF992001F173
:104B30008170AACF0E94E01C38C50497813A910584
:104B400058F46E2D8CE891E00E949F0B992009F497
:104B500019C40E94BA186FCB0E94BA188FE39CE95F
:104B60000197F1F700C000008E2D0E94761DEECF58
:104B7000239460CFFC01208131812415350509F093
:104B8000FAC39110FAC31092040380E00E940F1D33
:104B9000F9C345EF44164CE55406D1F0A8F027E2DE
:104BA00045EE66EE86EF48168CE5580609F031C4EE
:104BB000C3010E94E91D3FCB27E245EE65EEF8CF29
:104BC00026E241EE60EEF4CF27E245EE64EEF0CF50
:104BD00026E241EE62EEECCF28E241E0EFCFF1E6D3
:104BE0004F16FDE55F0609F42EC425EA42162DE5B1
:104BF000520609F428C4E6E14E16ECE55E0609F01B
:104C000013C1809106028A7A91E009F490E09093B2
:104C1000B70169E2811165E38CE891E00E949F0B86
:104C200098CF80911102806227E042162CE552064F
:104C300009F4ADC080911102806138E043163CE573
:104C4000530608F4A4C0809111028064A0C0809132
:104C500011028B7F4DE044164CE5540609F497C0D1
:104C600098F48BE048168CE5580609F4A5C08091AD
:104C700011028C609CE049169CE5590608F487C037
:104C8000809111028D7F83C0809111028F7EAFE0F1
:104C90004A16ACE55A0609F47AC080911102877F62
:104CA000B0E14B16BCE55B0608F471C080911102BF
:104CB0008F7D6DC0EDEF4E16ECE55E0609F484C005
:104CC00078F525E142162CE5520609F48BC0A0F4D4
:104CD00080911102837F43E144164CE5540609F4A8
:104CE00056C008F479C00E94911990911102892F41
:104CF00097FB87F980584BC08BEF48168CE5580618
:104D000009F450C008F05CC0809112028160AAEFE3
:104D10004A16ACE55A0609F0C5C380931202C2C315
:104D2000B1E04B16BDE55B0609F468C0C8F480919C
:104D300012028C7FFFEF4F16FCE55F0671F3809146
:104D40001202836041142DE5520638F3809112025D
:104D5000982F909591708E7F892B90FB81F9DDCFF4
:104D600031E643163DE5530609F44EC045EA4416C4
:104D70004DE5540609F44FC052E045165DE5550671
:104D800009F090C360E03BC0809111028260809383
:104D9000110288C3809111028460F9CF80911102C1
:104DA0008860F5CF809112028260B7CF0E9491197E
:104DB000809111028068EBCF809111028E7FE7CF46
:104DC000809112028E7FA9CF809112028D7FA5CF94
:104DD000809111028F7BDBCF0E949119809111028B
:104DE0008F77D5CF8091110282FB992790F921E02E
:104DF000922790FB82F990FB83F9C9CF61E08EE0A6
:104E000090E00E943B374EC390911102892F8F7E14
:104E100094FF8061BCCF90911102892F8E7F90FF0B
:104E20008160B5CF85E398C3882399F08AE5481659
:104E30008DE5580609F47DC008F056C04114ACE574
:104E40005A0609F466C0BEED4B16BCE55B0609F4D4
:104E50006DC0F301828100811181882309F46DC046
:104E6000C8010E944814F82E682FC8010E94E60F5E
:104E7000B8018F2D0E942C140E94FA0D8C01A82ECF
:104E8000D3011296EC9012971596DC90D2943FE0E5
:104E9000D3228091FC018770C1F0CE2CEE20B1F0BE
:104EA000812F807F803421F080E2800F883068F08D
:104EB0008091120282FD09C082E00E94491980910E
:104EC000FC018770CC24C3948111C12CB12EB29403
:104ED0002FE0B222BBE0BB1508F49BC0EB2DF0E045
:104EE000ED57F84C0C94D136EBE54E16EDE55E0629
:104EF00011F1FCE54F16FDE55F0609F0AACF8091A0
:104F0000120282FB882780F991E089270E946519A7
:104F1000A0CF0E9491192FEF34E34CE02150304094
:104F20004040E1F700C000000E94820B0E94721511
:104F300082C981E0EBCF80E0E9CFC8010E94B80FC1
:104F4000F82E96CFE12FEF70FE2E107F19F0F2941D
:104F500090EFF922EE20B9F0FF2069F080E2800F97
:104F6000883010F0A11009C080910602F82AF09252
:104F700006020E94BA18802F4AC080910502F82AC2
:104F8000F0920502F6CF802F0E94E01CFF2009F46A
:104F900040C0005E083010F0A11004C08F2D0E94A8
:104FA0008D0F06C0F09480910502F822F092050260
:104FB0000E94BA182EC0F12FFF70FF2E107F103202
:104FC00019F0F29480EFF822AA2089F021E0A216CD
:104FD00009F486C0EE2009F48FC0DD2009F464C016
:104FE000F301858180FFC7CF8F7085835DC080917D
:104FF000120282FF34C0EE2061F1FF2039F080916F
:105000000602F82AF09206020E94BA1880E00E9476
:10501000761DAB2DA850BB0B149710F40E94E50B26
:10502000CC2009F4C0C88091FC0180FDBCC8F3010C
:1050300012828595859585950E948219C3010E94EB
:10504000A9208091FC018595859585950E943D1943
:10505000AAC880E00E94E01CFF20D9F29FCFEE207A
:1050600039F1D11004C0809109028F291EC031E0AE
:10507000D31210C082FDCDCF80910902F82AF81614
:1050800041F20E943E179093080280930702F0922B
:105090000902BFCF45E0D412E6CF0E94820F809173
:1050A000F901F812F092F9018F2D0E94D61CB1CFB0
:1050B000D11006C00E94820F8F2D0E94CF1CA9CF55
:1050C00051E0D51208C0809106028F2109F4A1CFCA
:1050D0000E949B0FEFCF85E0D81609F49ACFEACF54
:1050E000EE2029F095E09D1508F493CFDDCFA4E0E4
:1050F000AD1508F48ECFE0CFDD20F1F2F9E3AF1269
:1051000009C02FEF37EE43E0215030404040E1F737
:1051100000C00000802F0E94E01C7BCF812F86956D
:105120008695837061F0813009F073CFC801937068
:10513000E11002C090E080E00E94B90B6ACFC80184
:105140009370E11002C090E080E00E94CF0B61CF2D
:10515000802FEE2029F00E94380D0E944A1759CF67
:105160000E94730CFACF812F837089F5E11051CF23
:10517000402F429546954770440F440F802F8F7003
:10518000042E01C0880F0A94EAF7202F207104FF33
:1051900007C02FE030E001C0220F4A95EAF72095C2
:1051A000169516951370123069F050F4309159022B
:1051B000113029F0822B83230E948D192ACF832B53
:1051C000822BFACF282B809159028227F5CF869522
:1051D000EE2011F0812F8170882309F41ACF402F1F
:1051E000429546954770440F440F802F8F70042ED0
:1051F00001C0880F0A94EAF7202F207104FF07C02E
:105200002FE030E001C0220F4A95EAF7209516956D
:1052100016951370123069F050F430913403113048
:1052200029F0822B83230E942E19F3CE832B822B0D
:10523000FACF282B809134038227F5CF1F70EE2000
:1052400029F0812F0E948219802F2FCF802F0E945A
:10525000CF1C812F0E943D19DCCE802F52EFA51666
:10526000A9F15A1570F090EFA916D1F0A1EFAA1686
:1052700091F0EE2009F46FC0D1107DCE812F8F7197
:1052800029C0B3EFAB1649F1E4EFAE12F2CF809133
:10529000120282FF2DC0812F8F71EE20D9F21AC029
:1052A000EE2079F0F4E0FD1508F4B3CE1F7181E033
:1052B00090E001C0880F1A95EAF79091340389278E
:1052C000B2CF25E02D1508F4A4CEF0CF812F8F7139
:1052D000E110C0CF0E9482199CCE80E0EE2009F43C
:1052E000A2CF1F7181E001C0880F1A95EAF79BCF0A
:1052F0008091F901EE20D9F00E948D0F8091FC0180
:105300008770843041F40E94940F812F8F710E9426
:105310003D19C12C7ECE34E03D15D8F31F71812F8D
:105320000E94821963E0812F0E940C1FF2CF90919E
:105330000602982B9093060244E04D1540F40E941B
:10534000940F0E949B0F64E0812F8F71EDCF81E05D
:105350000E944919DECFDD2059F0893309F0DACEF9
:105360005FEF87EE93E0515080409040E1F7D0CE60
:10537000812F8F716FCF992029F0DC0118968C91C5
:1053800085FF03CCB3EF4B16BCE55B0609F418CCE4
:1053900008F0FFCBF8ED4F16FCE55F0609F40CCCE6
:1053A00029ED42162CE5520609F416CC37ED4316CA
:1053B0003CE5530671F526E241EE61EEF9CB8091B2
:1053C000B5019091B6018415950581F41092B6014E
:1053D0001092B5011092FE021092FF02109200038B
:1053E00010920103109206031092050380910703A7
:1053F00090910803009731F2A8E0CA16D10408F092
:10540000B9CB632D0E94420C8111BCCF81E00E9478
:105410000F1DD30112968C91882309F492C010922B
:105420003303B3E04B16BDE55B0608F0D8CBEAEFDB
:105430004E16ECE55E0638F4920122503C452431CC
:10544000310508F0D8CB0E94BC14909312028093CF
:10545000110231E143163CE5530609F4B9CC08F0DA
:1054600029CC59E045165CE5550609F49FCC08F0B7
:10547000EECB95E049169CE5590609F48FCC08F06F
:10548000D0CBB3E04B16BCE55B0609F47DCC08F04D
:1054900081CC809111028160F2E04F16FCE55F063D
:1054A00009F475CC609111021091120284E090E031
:1054B0000E943B37612F82E290E00E943B370E94BE
:1054C00091190C941B21B0E14B16BFE55B0609F462
:1054D00061CAE1E14E16EFE55E0609F465CAEFE543
:1054E0004E16EDE55E0609F464CAF0E64F16FDE5DA
:1054F0005F0659F02EE542162DE5520609F05DCA09
:1055000080910001882309F454CA1092000180E0C0
:105510000E940F1D0C941B2185E0F301DE01119602
:1055200001900D928A95E1F7D30112962C91898111
:105530009A8121110C94EC200E94B80F182F0C9422
:10554000F420B6E14B16BCE55B0609F082CC8091F5
:10555000B701811167CC89E20E94A10FFACAE11458
:10556000F10409F0BECA912CF12CE12C80E00E94DC
:105570000F1D109308030093070381E08093040339
:10558000D80115968C918093020391100EC0EF28DC
:1055900061F0D8018D919C919C0124503109213AF0
:1055A000310508F0C7CA0E94A10FF801E680F78014
:1055B000C7019A9581159F4110F420EEF222BB2479
:1055C000B394C7010197853A9D4508F0B12CD801E5
:1055D0001996ED91FC911A97309731F01B966D91C9
:1055E0007C9181E00995B822BB2079F0F801868191
:1055F00097810E94401080930303C701F8E0CF1603
:10560000D10408F09ACA0E94F10B0E94BA189ECAEF
:105610001F93CF93DF938091C601807FA9F480917F
:10562000C301882389F08091F801D091C70160916E
:10563000C1017091C201A091C401B091C501C62FF2
:10564000C72316E0D81304C0DF91CF911F910895AE
:1056500090E0109711F0CF3F19F401968770F2CFC8
:10566000189F9001199F300D1124F901E853FE4F46
:1056700041814713F2CF40814613EFCF4281411160
:10568000ECCF438154814A1B5B0B483C510528F702
:105690008091C6018F7080618093C601F901E35348
:1056A000FE4F80818F708061808381EC91E00E9449
:1056B000A920DF91CF911F910C94AE0FAF92BF92B2
:1056C000CF92DF92EF92FF920F931F93CF93DF93CE
:1056D000CDB7DEB761970FB6F894DEBF0FBECDBF72
:1056E0008C0185E0F801DE011D9601900D928A95EE
:1056F000E1F7F801E28081ECA82E81E0B82E6091FC
:10570000C4017091C5016115710509F432C1909110
:10571000C1014091C201892F84238F3F09F429C11F
:1057200020813181C380D480F090C301F601E61B53
:10573000F70BFF2009F4E8C08091C601582F507F75
:10574000E83CF10508F0ABC0511177C0FE2C4313C3
:1057500021C092131FC0E1101DC08F708061809323
:10576000C601C5010E94A9208091C601F801858368
:105770008F2D61960FB6F894DEBF0FBECDBFDF91BF
:10578000CF911F910F91FF90EF90DF90CF90BF903E
:10579000AF900895CD2829F0822F83238F3F09F001
:1057A00003C180E0F82FF170DF2E80FF3CC08091B4
:1057B000F8014091C70156E0841315C02D873E873C
:1057C0008D859E850E947714292F22952F70223077
:1057D000F0F0243018F59F70F1F0F8019581907F7A
:1057E000D1F4D12C1EC090E0589FF001599FF00DCC
:1057F0001124E853FE4F6181361306C060812613E1
:1058000003C06281E6120FC001968770D5CF9F70EA
:1058100011F0882331F3805E883018F3C8010E94AC
:10582000A920FD2CA5CFEE2009F4A2CF8091C601BE
:1058300081608093C601F12C9BCF431306C0921365
:1058400004C0F801EE2009F479C0C8010E94831455
:10585000882309F1EE20F9F08091C601803270F0C2
:105860002091C1013091C20138872F831986DB86D0
:10587000CA868C87CE0107960E94A92086E0F8018F
:10588000A1ECB1E001900D928A95E1F70E94082BFE
:10589000FF24F3946DCFC8010E94A920F9CF5111C4
:1058A0000AC081EC91E00E94A92086E0F5011192E6
:1058B0008A95E9F7C0CF43130FC092130DC0E110D2
:1058C0000BC0F8018583C8010E94A92086E0F5017C
:1058D00011928A95E9F74CCFC8010E94831488235E
:1058E000D1F2EE20C1F28091C601803238F22091CF
:1058F000C1013091C2013A8329831B82DD82CC82AF
:105900008E83CE010196B8CFE83CF105F8F6FE2C67
:10591000EE2009F243131FC092131DC08091C601EF
:1059200080FD10C0982F907F69F0F8018583903F2B
:1059300031F0982F907F905F8F70892B8583C801FD
:105940000E94A92086E0F801A1ECB1E001900D923F
:105950008A95E1F70DCFC8010E94831481118ECF83
:105960008091C60181608093C601C8010E94A92070
:10597000FFCEEE2009F48FCFC8010E948314F82EC9
:10598000882309F488CF86E0F801A1ECB1E001900A
:105990000D928A95E1F78091C1019091C2010E9418
:1059A00077140E94082BE4CE81E08E25FBCE1F9257
:1059B0001FB61F9211248F939F93AF93BF93809133
:1059C0000F03811113C08091100390911103A091D6
:1059D0001203B09113034196A11DB11D80931003D2
:1059E00090931103A0931203B0931303BF91AF914F
:1059F0009F918F911F901FBE1F901895CDB7DEB756
:105A0000E9970FB6F894DEBF0FBECDBF84B7877F8E
:105A100084BF0FB6F894A895809160008861809348
:105A20006000109260000FBE80E890E00FB6F8941E
:105A300080936100909361000FBE85B7806885BF39
:105A400085B7806885BF8CEE90E190938B01809341
:105A50008A010E94CA140E94F4090E94BF0A809120
:105A6000E20084608093E200789480912703882389
:105A7000A1F01091E9001F709091EC00892F8170C6
:105A800090FD80E8182B1092E9008091E80083FDDA
:105A90000E949C191F701093E90082E084BD93E07E
:105AA00095BD9AEF97BD80936E000E94A31481115B
:105AB00002C00E94BE1384EF0E94A00D85EF0E94D9
:105AC000A00D86EF0E94A00D87EF0E94A00D04E5B7
:105AD00011E0F9E5EF2EF1E0FF2ED8018D918D0157
